{
  "abi": [
    {
      "inputs": [
        {
          "internalType": "address",
          "name": "_HtokenImpl",
          "type": "address"
        },
        {
          "internalType": "uint16",
          "name": "_chainId",
          "type": "uint16"
        },
        {
          "internalType": "address",
          "name": "_delivery",
          "type": "address"
        }
      ],
      "stateMutability": "nonpayable",
      "type": "constructor"
    },
    {
      "inputs": [
        {
          "internalType": "string",
          "name": "Err",
          "type": "string"
        }
      ],
      "name": "BrokenInvariant",
      "type": "error"
    },
    {
      "inputs": [
        {
          "internalType": "string",
          "name": "reason",
          "type": "string"
        }
      ],
      "name": "ChainIdCantBeLocal",
      "type": "error"
    },
    {
      "inputs": [],
      "name": "FailedToInitializeClone",
      "type": "error"
    },
    {
      "inputs": [
        {
          "internalType": "address",
          "name": "from",
          "type": "address"
        }
      ],
      "name": "FailedToTransferFrom",
      "type": "error"
    },
    {
      "inputs": [],
      "name": "FailedToTransferTokens",
      "type": "error"
    },
    {
      "inputs": [],
      "name": "NoNativeToken",
      "type": "error"
    },
    {
      "inputs": [],
      "name": "OnlyValidDelivery",
      "type": "error"
    },
    {
      "inputs": [],
      "name": "TokenExist",
      "type": "error"
    },
    {
      "inputs": [],
      "name": "failedToCreateClone",
      "type": "error"
    },
    {
      "inputs": [
        {
          "components": [
            {
              "internalType": "address",
              "name": "nativeToken",
              "type": "address"
            },
            {
              "internalType": "uint16",
              "name": "nativeChain",
              "type": "uint16"
            }
          ],
          "internalType": "struct HTinfo",
          "name": "HtokenInfo",
          "type": "tuple"
        }
      ],
      "name": "tokenAlreadyWarpped",
      "type": "error"
    },
    {
      "inputs": [
        {
          "internalType": "address",
          "name": "nativeToken",
          "type": "address"
        },
        {
          "internalType": "uint16",
          "name": "nativeChainId",
          "type": "uint16"
        },
        {
          "internalType": "string",
          "name": "name",
          "type": "string"
        },
        {
          "internalType": "string",
          "name": "symbol",
          "type": "string"
        },
        {
          "internalType": "uint8",
          "name": "decimals",
          "type": "uint8"
        }
      ],
      "name": "clone",
      "outputs": [
        {
          "internalType": "address",
          "name": "",
          "type": "address"
        }
      ],
      "stateMutability": "nonpayable",
      "type": "function"
    },
    {
      "inputs": [
        {
          "internalType": "address",
          "name": "token",
          "type": "address"
        },
        {
          "internalType": "uint16",
          "name": "chainId",
          "type": "uint16"
        }
      ],
      "name": "getHtoken",
      "outputs": [
        {
          "internalType": "address",
          "name": "",
          "type": "address"
        }
      ],
      "stateMutability": "view",
      "type": "function"
    },
    {
      "inputs": [
        {
          "internalType": "address",
          "name": "Htoken",
          "type": "address"
        }
      ],
      "name": "getHtokenInfo",
      "outputs": [
        {
          "components": [
            {
              "internalType": "address",
              "name": "nativeToken",
              "type": "address"
            },
            {
              "internalType": "uint16",
              "name": "nativeChain",
              "type": "uint16"
            }
          ],
          "internalType": "struct HTinfo",
          "name": "info",
          "type": "tuple"
        }
      ],
      "stateMutability": "view",
      "type": "function"
    },
    {
      "inputs": [
        {
          "internalType": "address",
          "name": "token",
          "type": "address"
        },
        {
          "internalType": "uint256",
          "name": "amount",
          "type": "uint256"
        },
        {
          "internalType": "address",
          "name": "to",
          "type": "address"
        }
      ],
      "name": "unwarp",
      "outputs": [
        {
          "internalType": "uint256",
          "name": "",
          "type": "uint256"
        }
      ],
      "stateMutability": "nonpayable",
      "type": "function"
    },
    {
      "inputs": [
        {
          "internalType": "address",
          "name": "token",
          "type": "address"
        },
        {
          "internalType": "uint256",
          "name": "amount",
          "type": "uint256"
        },
        {
          "internalType": "address",
          "name": "to",
          "type": "address"
        }
      ],
      "name": "warp",
      "outputs": [
        {
          "internalType": "uint256",
          "name": "",
          "type": "uint256"
        }
      ],
      "stateMutability": "nonpayable",
      "type": "function"
    }
  ],
  "bytecode": {
    "object": "0x60e060405234801561001057600080fd5b5060405162001586380380620015868339810160408190526100319161006d565b6001600160a01b0392831660805261ffff90911660a0521660c0526100b9565b80516001600160a01b038116811461006857600080fd5b919050565b60008060006060848603121561008257600080fd5b61008b84610051565b9250602084015161ffff811681146100a257600080fd5b91506100b060408501610051565b90509250925092565b60805160a05160c05161147362000113600039600081816101e401528181610bf00152610cfa01526000818161015b01528181610352015281816108d10152818161091501526109bc01526000610b3d01526114736000f3fe608060405234801561001057600080fd5b50600436106100575760003560e01c806366517ff51461005c57806373bfbc991461008c5780637a0561541461009f5780637bda9f37146100c0578063f4667ba414610144575b600080fd5b61006f61006a3660046110cb565b610157565b6040516001600160a01b0390911681526020015b60405180910390f35b61006f61009a366004611165565b610304565b6100b26100ad366004611198565b610333565b604051908152602001610083565b61011c6100ce3660046111d4565b604080518082018252600080825260209182018190526001600160a01b039384168152600182528290208251808401909352549283168252600160a01b90920461ffff169181019190915290565b6040805182516001600160a01b0316815260209283015161ffff169281019290925201610083565b6100b2610152366004611198565b610753565b60007f000000000000000000000000000000000000000000000000000000000000000061ffff168561ffff16036101d9576040516001622b965560e21b0319815260206004820152601e60248201527f6f6e6c7920776172707065722063616e20636c6f6e65206e617469766520000060448201526064015b60405180910390fd5b336001600160a01b037f0000000000000000000000000000000000000000000000000000000000000000161461022257604051633756e4a760e11b815260040160405180910390fd5b60006102318787878787610b36565b6001600160a01b0388811660009081526020818152604080832061ffff8c168452909152902054919250161561027a576040516345e20c9f60e11b815260040160405180910390fd5b6001600160a01b0380881660008181526020818152604080832061ffff808d168086529184528285208054888a166001600160a01b0319909116811790915583518085018552968752868501928352855260019093529220925183549251909116600160a01b026001600160b01b0319909216931692909217919091179055905095945050505050565b6001600160a01b0380831660009081526020818152604080832061ffff86168452909152902054165b92915050565b6001600160a01b0380841660009081526020818152604080832061ffff7f00000000000000000000000000000000000000000000000000000000000000001684529091528120549091168061039b576040516357bd46e760e11b815260040160405180910390fd5b6000816001600160a01b03166318160ddd6040518163ffffffff1660e01b8152600401602060405180830381865afa1580156103db573d6000803e3d6000fd5b505050506040513d601f19601f820116820180604052508101906103ff91906111f6565b6040516323b872dd60e01b8152336004820152306024820152604481018790529091506001600160a01b038316906323b872dd906064016020604051808303816000875af1158015610455573d6000803e3d6000fd5b505050506040513d601f19601f82011682018060405250810190610479919061120f565b506040516370a0823160e01b815230600482018190526000916001600160a01b03851691639dc29fac9183906370a0823190602401602060405180830381865afa1580156104cb573d6000803e3d6000fd5b505050506040513d601f19601f820116820180604052508101906104ef91906111f6565b6040516001600160e01b031960e085901b1681526001600160a01b03909216600483015260248201526044016020604051808303816000875af115801561053a573d6000803e3d6000fd5b505050506040513d601f19601f8201168201806040525081019061055e91906111f6565b6040516001600160a01b03871660248201526044810182905290915060009060640160408051601f198184030181529181526020820180516001600160e01b031663a9059cbb60e01b179052516370a0823160e01b81523060048201529091506000906001600160a01b038a16906370a0823190602401602060405180830381865afa1580156105f2573d6000803e3d6000fd5b505050506040513d601f19601f8201168201806040525081019061061691906111f6565b905060006106278382808d81610d62565b5090508061064857604051637610b93d60e11b815260040160405180910390fd5b856001600160a01b03166318160ddd6040518163ffffffff1660e01b8152600401602060405180830381865afa158015610686573d6000803e3d6000fd5b505050506040513d601f19601f820116820180604052508101906106aa91906111f6565b6106b49086611231565b6040516370a0823160e01b81523060048201526001600160a01b038c16906370a0823190602401602060405180830381865afa1580156106f8573d6000803e3d6000fd5b505050506040513d601f19601f8201168201806040525081019061071c91906111f6565b6107269084611231565b1115610745576040516327e1c06960e01b81526004016101d090611252565b509198975050505050505050565b6001600160a01b038316600090815260016020526040812054600160a01b900461ffff16156107ca576001600160a01b0384166000908152600160205260409081902090516307861f0760e51b81526101d0919060040190546001600160a01b038116825260a01c61ffff16602082015260400190565b6040516370a0823160e01b81523060048201526000906001600160a01b038616906370a0823190602401602060405180830381865afa158015610811573d6000803e3d6000fd5b505050506040513d601f19601f8201168201806040525081019061083591906111f6565b6040513360248201523060448201526064810186905290915060009060840160408051601f198184030181529190526020810180516001600160e01b03166323b872dd60e01b1790529050600061088f8282808a81610d62565b509050806108b25760405163316189b560e01b81523360048201526024016101d0565b6001600160a01b0380881660009081526020818152604080832061ffff7f00000000000000000000000000000000000000000000000000000000000000001684529091529020541680610a415760008061090b8a610daa565b9150915061099d8a7f000000000000000000000000000000000000000000000000000000000000000084848e6001600160a01b031663313ce5676040518163ffffffff1660e01b8152600401602060405180830381865afa158015610974573d6000803e3d6000fd5b505050506040513d601f19601f82011682018060405250810190610998919061129b565b610b36565b6001600160a01b03808c1660008181526020818152604080832061ffff7f000000000000000000000000000000000000000000000000000000000000000081168086529184528285208054888a166001600160a01b0319909116811790915583518085018552968752868501928352855260019093529220925183549251909116600160a01b026001600160b01b0319909216931692909217919091179055925050505b6000816001600160a01b03166318160ddd6040518163ffffffff1660e01b8152600401602060405180830381865afa158015610a81573d6000803e3d6000fd5b505050506040513d601f19601f82011682018060405250810190610aa591906111f6565b6040516340c10f1960e01b81526001600160a01b038981166004830152602482018b9052919250908316906340c10f19906044016020604051808303816000875af1158015610af8573d6000803e3d6000fd5b505050506040513d601f19601f82011682018060405250810190610b1c91906111f6565b50610b2989838784610ec0565b5095979650505050505050565b60008060007f000000000000000000000000000000000000000000000000000000000000000060601b9050604051733d602d80600a3d3981f3363d3d373d3d3d363d7360601b81528160148201526e5af43d82803e903d91602b57fd5bf360881b60288201526037816000f09250506001600160a01b038216610bcc57604051636770d3c960e11b815260040160405180910390fd5b60405163e2da50af60e01b81526001600160a01b0383169063e2da50af90610c24907f0000000000000000000000000000000000000000000000000000000000000000908c9030908d908d908d908d90600401611308565b600060405180830381600087803b158015610c3e57600080fd5b505af1158015610c52573d6000803e3d6000fd5b50505050816001600160a01b031663952888836040518163ffffffff1660e01b8152600401602060405180830381865afa158015610c94573d6000803e3d6000fd5b505050506040513d601f19601f82011682018060405250810190610cb8919061129b565b60ff16600114610cdb57604051631cb28b2360e11b815260040160405180910390fd5b60405163372c12b160e01b81526001600160a01b0383811660048301527f0000000000000000000000000000000000000000000000000000000000000000169063372c12b190602401600060405180830381600087803b158015610d3e57600080fd5b505af1158015610d52573d6000803e3d6000fd5b50939a9950505050505050505050565b600060608415610d725784610d77565b5a9450845b50600080885160208a0186888af191503d86811115610d94575060005b808252806000602084013e509550959350505050565b606080826001600160a01b03166306fdde036040518163ffffffff1660e01b8152600401600060405180830381865afa158015610deb573d6000803e3d6000fd5b505050506040513d6000823e601f3d908101601f19168201604052610e139190810190611370565b604051602001610e2391906113e7565b6040516020818303038152906040529150826001600160a01b03166395d89b416040518163ffffffff1660e01b8152600401600060405180830381865afa158015610e72573d6000803e3d6000fd5b505050506040513d6000823e601f3d908101601f19168201604052610e9a9190810190611370565b604051602001610eaa9190611414565b6040516020818303038152906040529050915091565b81836001600160a01b03166318160ddd6040518163ffffffff1660e01b8152600401602060405180830381865afa158015610eff573d6000803e3d6000fd5b505050506040513d601f19601f82011682018060405250810190610f2391906111f6565b610f2d9190611231565b6040516370a0823160e01b815230600482015282906001600160a01b038716906370a0823190602401602060405180830381865afa158015610f73573d6000803e3d6000fd5b505050506040513d601f19601f82011682018060405250810190610f9791906111f6565b610fa19190611231565b1015610fc0576040516327e1c06960e01b81526004016101d090611252565b50505050565b80356001600160a01b0381168114610fdd57600080fd5b919050565b803561ffff81168114610fdd57600080fd5b634e487b7160e01b600052604160045260246000fd5b604051601f8201601f1916810167ffffffffffffffff8111828210171561103357611033610ff4565b604052919050565b600067ffffffffffffffff82111561105557611055610ff4565b50601f01601f191660200190565b600082601f83011261107457600080fd5b81356110876110828261103b565b61100a565b81815284602083860101111561109c57600080fd5b816020850160208301376000918101602001919091529392505050565b60ff811681146110c857600080fd5b50565b600080600080600060a086880312156110e357600080fd5b6110ec86610fc6565b94506110fa60208701610fe2565b9350604086013567ffffffffffffffff8082111561111757600080fd5b61112389838a01611063565b9450606088013591508082111561113957600080fd5b5061114688828901611063565b9250506080860135611157816110b9565b809150509295509295909350565b6000806040838503121561117857600080fd5b61118183610fc6565b915061118f60208401610fe2565b90509250929050565b6000806000606084860312156111ad57600080fd5b6111b684610fc6565b9250602084013591506111cb60408501610fc6565b90509250925092565b6000602082840312156111e657600080fd5b6111ef82610fc6565b9392505050565b60006020828403121561120857600080fd5b5051919050565b60006020828403121561122157600080fd5b815180151581146111ef57600080fd5b8181038181111561032d57634e487b7160e01b600052601160045260246000fd5b60208082526029908201527f746f74616c20737570706c792067726561746572207468656e20776172707065604082015268722062616c616e636560b81b606082015260800190565b6000602082840312156112ad57600080fd5b81516111ef816110b9565b60005b838110156112d35781810151838201526020016112bb565b50506000910152565b600081518084526112f48160208601602086016112b8565b601f01601f19169290920160200192915050565b6001600160a01b03888116825287811660208301528616604082015261ffff8516606082015260e060808201819052600090611346908301866112dc565b82810360a084015261135881866112dc565b91505060ff831660c083015298975050505050505050565b60006020828403121561138257600080fd5b815167ffffffffffffffff81111561139957600080fd5b8201601f810184136113aa57600080fd5b80516113b86110828261103b565b8181528560208385010111156113cd57600080fd5b6113de8260208301602086016112b8565b95945050505050565b6402430bbb5960dd1b8152600082516114078160058501602087016112b8565b9190910160050192915050565b600960fb1b8152600082516114308160018501602087016112b8565b919091016001019291505056fea26469706673582212204ea5260b4fd5101f9e441c6b45d99c22111cec708d09b2967ed93837a591718a64736f6c63430008150033",
    "linkReferences": {}
  },
  "methodIdentifiers": {
    "clone(address,uint16,string,string,uint8)": "66517ff5",
    "getHtoken(address,uint16)": "73bfbc99",
    "getHtokenInfo(address)": "7bda9f37",
    "unwarp(address,uint256,address)": "7a056154",
    "warp(address,uint256,address)": "f4667ba4"
  },
  "id": 28
}