{
  "abi": [
    {
      "inputs": [
        {
          "internalType": "address",
          "name": "endpoint",
          "type": "address"
        },
        {
          "internalType": "uint16",
          "name": "localChainId",
          "type": "uint16"
        }
      ],
      "stateMutability": "nonpayable",
      "type": "constructor"
    },
    {
      "inputs": [],
      "name": "InvalidTokenToWhiteList",
      "type": "error"
    },
    {
      "inputs": [],
      "name": "NotValidDelivery",
      "type": "error"
    },
    {
      "inputs": [],
      "name": "NotValidDistanation",
      "type": "error"
    },
    {
      "inputs": [],
      "name": "OnlyWarpper",
      "type": "error"
    },
    {
      "inputs": [],
      "name": "OnlyWhiteListedTokens",
      "type": "error"
    },
    {
      "inputs": [],
      "name": "PayloadExceedsSizeLimit",
      "type": "error"
    },
    {
      "inputs": [
        {
          "internalType": "uint16",
          "name": "chainId",
          "type": "uint16"
        },
        {
          "internalType": "bytes",
          "name": "_payload",
          "type": "bytes"
        },
        {
          "internalType": "address payable",
          "name": "_refunde",
          "type": "address"
        },
        {
          "internalType": "address",
          "name": "_payInZro",
          "type": "address"
        }
      ],
      "name": "Send",
      "outputs": [],
      "stateMutability": "payable",
      "type": "function"
    },
    {
      "inputs": [],
      "name": "_msgSender",
      "outputs": [
        {
          "internalType": "address",
          "name": "",
          "type": "address"
        }
      ],
      "stateMutability": "view",
      "type": "function"
    },
    {
      "inputs": [
        {
          "internalType": "uint16",
          "name": "chainId",
          "type": "uint16"
        }
      ],
      "name": "adapterParameters",
      "outputs": [
        {
          "internalType": "bytes",
          "name": "",
          "type": "bytes"
        }
      ],
      "stateMutability": "view",
      "type": "function"
    },
    {
      "inputs": [
        {
          "internalType": "uint16",
          "name": "chainId",
          "type": "uint16"
        },
        {
          "internalType": "address",
          "name": "remoteAddr",
          "type": "address"
        }
      ],
      "name": "addRemoteAddress",
      "outputs": [],
      "stateMutability": "nonpayable",
      "type": "function"
    },
    {
      "inputs": [
        {
          "internalType": "address",
          "name": "newOwner",
          "type": "address"
        }
      ],
      "name": "changeOwner",
      "outputs": [],
      "stateMutability": "nonpayable",
      "type": "function"
    },
    {
      "inputs": [
        {
          "internalType": "uint16",
          "name": "_dstChain",
          "type": "uint16"
        },
        {
          "internalType": "bytes",
          "name": "_payload",
          "type": "bytes"
        },
        {
          "internalType": "bool",
          "name": "_payInZRO",
          "type": "bool"
        }
      ],
      "name": "estimateFees",
      "outputs": [
        {
          "internalType": "uint256",
          "name": "nativeFee",
          "type": "uint256"
        },
        {
          "internalType": "uint256",
          "name": "zroFee",
          "type": "uint256"
        }
      ],
      "stateMutability": "view",
      "type": "function"
    },
    {
      "inputs": [
        {
          "internalType": "uint16",
          "name": "_srcChainId",
          "type": "uint16"
        },
        {
          "internalType": "bytes",
          "name": "_srcAddress",
          "type": "bytes"
        }
      ],
      "name": "forceResumeReceive",
      "outputs": [],
      "stateMutability": "nonpayable",
      "type": "function"
    },
    {
      "inputs": [
        {
          "internalType": "address",
          "name": "token",
          "type": "address"
        }
      ],
      "name": "isHawkToken",
      "outputs": [
        {
          "internalType": "bool",
          "name": "valid",
          "type": "bool"
        }
      ],
      "stateMutability": "view",
      "type": "function"
    },
    {
      "inputs": [
        {
          "internalType": "uint16",
          "name": "chainId",
          "type": "uint16"
        }
      ],
      "name": "isValidDistination",
      "outputs": [
        {
          "internalType": "bool",
          "name": "valid",
          "type": "bool"
        }
      ],
      "stateMutability": "view",
      "type": "function"
    },
    {
      "inputs": [],
      "name": "localChainId",
      "outputs": [
        {
          "internalType": "uint16",
          "name": "",
          "type": "uint16"
        }
      ],
      "stateMutability": "view",
      "type": "function"
    },
    {
      "inputs": [],
      "name": "lzEndpoint",
      "outputs": [
        {
          "internalType": "address",
          "name": "",
          "type": "address"
        }
      ],
      "stateMutability": "view",
      "type": "function"
    },
    {
      "inputs": [
        {
          "internalType": "uint16",
          "name": "_srcChainId",
          "type": "uint16"
        },
        {
          "internalType": "bytes",
          "name": "path",
          "type": "bytes"
        },
        {
          "internalType": "uint64",
          "name": "",
          "type": "uint64"
        },
        {
          "internalType": "bytes",
          "name": "_payload",
          "type": "bytes"
        }
      ],
      "name": "lzReceive",
      "outputs": [],
      "stateMutability": "nonpayable",
      "type": "function"
    },
    {
      "inputs": [],
      "name": "owner",
      "outputs": [
        {
          "internalType": "address",
          "name": "",
          "type": "address"
        }
      ],
      "stateMutability": "view",
      "type": "function"
    },
    {
      "inputs": [
        {
          "internalType": "uint16",
          "name": "chainId",
          "type": "uint16"
        }
      ],
      "name": "remoteDelivery",
      "outputs": [
        {
          "internalType": "address",
          "name": "",
          "type": "address"
        }
      ],
      "stateMutability": "view",
      "type": "function"
    },
    {
      "inputs": [
        {
          "internalType": "uint16",
          "name": "_srcChainId",
          "type": "uint16"
        },
        {
          "internalType": "bytes",
          "name": "_srcAddress",
          "type": "bytes"
        },
        {
          "internalType": "bytes",
          "name": "_payload",
          "type": "bytes"
        }
      ],
      "name": "retryPayload",
      "outputs": [],
      "stateMutability": "nonpayable",
      "type": "function"
    },
    {
      "inputs": [
        {
          "internalType": "uint16",
          "name": "srcChainId",
          "type": "uint16"
        },
        {
          "internalType": "address",
          "name": "Htoken",
          "type": "address"
        },
        {
          "internalType": "bytes",
          "name": "payload",
          "type": "bytes"
        }
      ],
      "name": "reverseFailedPayload",
      "outputs": [],
      "stateMutability": "nonpayable",
      "type": "function"
    },
    {
      "inputs": [
        {
          "internalType": "uint16",
          "name": "_version",
          "type": "uint16"
        },
        {
          "internalType": "uint16",
          "name": "_chainId",
          "type": "uint16"
        },
        {
          "internalType": "uint256",
          "name": "_configType",
          "type": "uint256"
        },
        {
          "internalType": "bytes",
          "name": "_config",
          "type": "bytes"
        }
      ],
      "name": "setConfig",
      "outputs": [],
      "stateMutability": "nonpayable",
      "type": "function"
    },
    {
      "inputs": [
        {
          "internalType": "uint16",
          "name": "_version",
          "type": "uint16"
        }
      ],
      "name": "setReceiveVersion",
      "outputs": [],
      "stateMutability": "nonpayable",
      "type": "function"
    },
    {
      "inputs": [
        {
          "internalType": "uint16",
          "name": "_version",
          "type": "uint16"
        }
      ],
      "name": "setSendVersion",
      "outputs": [],
      "stateMutability": "nonpayable",
      "type": "function"
    },
    {
      "inputs": [
        {
          "internalType": "address",
          "name": "_warpper",
          "type": "address"
        }
      ],
      "name": "setWarper",
      "outputs": [],
      "stateMutability": "nonpayable",
      "type": "function"
    },
    {
      "inputs": [],
      "name": "warpper",
      "outputs": [
        {
          "internalType": "address",
          "name": "",
          "type": "address"
        }
      ],
      "stateMutability": "view",
      "type": "function"
    },
    {
      "inputs": [
        {
          "internalType": "address",
          "name": "token",
          "type": "address"
        }
      ],
      "name": "whiteList",
      "outputs": [],
      "stateMutability": "nonpayable",
      "type": "function"
    }
  ],
  "bytecode": {
    "object": "0x60c060405234801561001057600080fd5b506040516117fc3803806117fc83398101604081905261002f9161005b565b6001600160a01b0390911660a052600480546001600160a01b0319163317905561ffff166080526100a8565b6000806040838503121561006e57600080fd5b82516001600160a01b038116811461008557600080fd5b602084015190925061ffff8116811461009d57600080fd5b809150509250929050565b60805160a05161170c6100f0600039600081816103e90152818161049601528181610628015281816108420152610eb90152600081816102b8015261075c015261170c6000f3fe6080604052600436106101345760003560e01c806376791918116100ab578063aaff5f161161006f578063aaff5f16146103b8578063b353aaa7146103da578063cbed8b9c1461040d578063db4b7f961461042d578063df58d6511461044d578063f38b21361461046d57600080fd5b806376791918146102e257806377767168146102f55780638da5cb5b1461033e5780639dcfa8e51461035c578063a6f9dae11461039857600080fd5b8063119df25f116100fd578063119df25f146101d5578063372c12b1146101fc5780633de8b9dc1461021c57806342d65a8d14610256578063438131c4146102765780635b056da5146102a357600080fd5b80621d35671461013957806307e0db171461015b578063080717881461017b57806310ddb1371461015b5780631122258f1461019b575b600080fd5b34801561014557600080fd5b50610159610154366004611047565b61048b565b005b34801561016757600080fd5b506101596101763660046110e1565b6105b9565b34801561018757600080fd5b50610159610196366004611118565b6105e6565b3480156101a757600080fd5b506101bb6101b63660046111f2565b61083d565b604080519283526020830191909152015b60405180910390f35b3480156101e157600080fd5b50335b6040516001600160a01b0390911681526020016101cc565b34801561020857600080fd5b50610159610217366004611259565b6108e8565b34801561022857600080fd5b506101e46102373660046110e1565b61ffff166000908152602081905260409020546001600160a01b031690565b34801561026257600080fd5b50610159610271366004611276565b61098c565b34801561028257600080fd5b506102966102913660046110e1565b6109b6565b6040516101cc919061130f565b3480156102af57600080fd5b5060405161ffff7f00000000000000000000000000000000000000000000000000000000000000001681526020016101cc565b6101596102f0366004611322565b610a5d565b34801561030157600080fd5b5061032e610310366004611259565b6001600160a01b031660009081526006602052604090205460ff1690565b60405190151581526020016101cc565b34801561034a57600080fd5b506004546001600160a01b03166101e4565b34801561036857600080fd5b5061032e6103773660046110e1565b61ffff166000908152602081905260409020546001600160a01b0316151590565b3480156103a457600080fd5b506101596103b3366004611259565b610a9a565b3480156103c457600080fd5b506101596103d336600461139d565b5050505050565b3480156103e657600080fd5b507f00000000000000000000000000000000000000000000000000000000000000006101e4565b34801561041957600080fd5b5061015961042836600461141e565b610af3565b34801561043957600080fd5b50610159610448366004611259565b610b1d565b34801561045957600080fd5b5061015961046836600461147c565b505050565b34801561047957600080fd5b506005546001600160a01b03166101e4565b336001600160a01b037f000000000000000000000000000000000000000000000000000000000000000016146104fd5760405162461bcd60e51b81526020600482015260126024820152711bdb9b1e48195b991c1bda5b9d0818d85b1b60721b60448201526064015b60405180910390fd5b600085858080601f0160208091040260200160405190810160405280939291908181526020018383808284376000920182905250601485015161ffff8d1682526020829052604090912054949550936001600160a01b03161592508291506105869050575061ffff88166000908152602081905260409020546001600160a01b03828116911614155b156105a45760405163afbf372b60e01b815260040160405180910390fd5b6105af888585610be6565b5050505050505050565b6004546001600160a01b031633146105e35760405162461bcd60e51b81526004016104f4906114dc565b50565b6004546001600160a01b031633146106105760405162461bcd60e51b81526004016104f4906114dc565b604051639c729da160e01b81523060048201526000907f00000000000000000000000000000000000000000000000000000000000000006001600160a01b031690639c729da190602401602060405180830381865afa158015610677573d6000803e3d6000fd5b505050506040513d601f19601f8201168201806040525081019061069b9190611505565b60405163ea216c2160e01b815261ffff851660048201529091506000906001600160a01b0383169063ea216c2190602401602060405180830381865afa1580156106e9573d6000803e3d6000fd5b505050506040513d601f19601f8201168201806040525081019061070d9190611522565b0361075a5760405162461bcd60e51b815260206004820152601760248201527f636861696e20696420646f6573206e6f7420657869737400000000000000000060448201526064016104f4565b7f000000000000000000000000000000000000000000000000000000000000000061ffff168361ffff16036107d15760405162461bcd60e51b815260206004820152601760248201527f63616e2774206265206c6f63616c20636861696e20696400000000000000000060448201526064016104f4565b61ffff83166000908152602081905260408120546001600160a01b0316156107fa5760016107fd565b60005b61ffff8516600090815260208190526040902080546001600160a01b0319166001600160a01b038616179055905080156108375750505050565b50505050565b6000807f00000000000000000000000000000000000000000000000000000000000000006001600160a01b03166340a7bb108630878761087c8b6109b6565b6040518663ffffffff1660e01b815260040161089c95949392919061153b565b6040805180830381865afa1580156108b8573d6000803e3d6000fd5b505050506040513d601f19601f820116820180604052508101906108dc919061158f565b91509150935093915050565b6005546001600160a01b0316336001600160a01b03161461091c576040516352a0d9ff60e01b815260040160405180910390fd5b6001600160a01b03811660009081526006602052604090205460ff168061094a57506001600160a01b038116155b1561096857604051632caefcbb60e21b815260040160405180910390fd5b6001600160a01b03166000908152600660205260409020805460ff19166001179055565b6004546001600160a01b031633146104685760405162461bcd60e51b81526004016104f4906114dc565b61ffff811660009081526003602052604090208054606091906109d8906115b3565b80601f0160208091040260200160405190810160405280929190818152602001828054610a04906115b3565b8015610a515780601f10610a2657610100808354040283529160200191610a51565b820191906000526020600020905b815481529060010190602001808311610a3457829003601f168201915b50505050509050919050565b3360009081526006602052604090205460ff16610a8d576040516303aae04f60e01b815260040160405180910390fd5b6103d38585858585610ddf565b6004546001600160a01b03163314610ac45760405162461bcd60e51b81526004016104f4906114dc565b6001600160a01b038116156105e357600480546001600160a01b0383166001600160a01b031990911617905550565b6004546001600160a01b031633146103d35760405162461bcd60e51b81526004016104f4906114dc565b6004546001600160a01b03163314610b475760405162461bcd60e51b81526004016104f4906114dc565b6005546001600160a01b031615610bac5760405162461bcd60e51b8152602060048201526024808201527f7761727070657220616c7265616479207365742c2063616e2774206368616e6760448201526319481a5d60e21b60648201526084016104f4565b600580546001600160a01b039092166001600160a01b0319909216821790556000908152600660205260409020805460ff19166001179055565b600080600080600080610c2e88888080601f016020809104026020016040519081016040528093929190818152602001838380828437600092019190915250610f4b92505050565b61ffff851660009081526007602090815260408083206001600160a01b038089168552925290912054969c50949a50929850909650945092501680610d28576005546040516366517ff560e01b81526001600160a01b03909116906366517ff590610ca59088908a908990899089906004016115ed565b6020604051808303816000875af1158015610cc4573d6000803e3d6000fd5b505050506040513d601f19601f82011682018060405250810190610ce89190611505565b61ffff871660009081526007602090815260408083206001600160a01b038a81168552925290912080546001600160a01b03191691831691909117905590505b6001600160a01b03811660009081526006602052604090205460ff16610d61576040516303aae04f60e01b815260040160405180910390fd5b6000610d706000895a85610f81565b50905080610dd257610dd2828b8b604051610d8c929190611643565b60405180910390208d61ffff1660009081526001602090815260408083209383529290522080546001600160a01b039092166001600160a01b0319909216919091179055565b5050505050505050505050565b61ffff85166000908152602081905260409020546001600160a01b0316610e19576040516332b05c2b60e21b815260040160405180910390fd5b61ffff85166000818152602081815260408083205481516bffffffffffffffffffffffff19606092831b8116828601523090921b90911660348201528151808203602801815260489091018252938352600290915290205415610eaa5761ffff8616600090815260026020526040902054841115610eaa5760405163779957e960e01b815260040160405180910390fd5b6000610eb5876109b6565b90507f00000000000000000000000000000000000000000000000000000000000000006001600160a01b031663c58031003489858a8a8a8a896040518963ffffffff1660e01b8152600401610f109796959493929190611653565b6000604051808303818588803b158015610f2957600080fd5b505af1158015610f3d573d6000803e3d6000fd5b505050505050505050505050565b6020810180516040920191820151606083015160808401805190940160a08101805190910160c001519395929491939192909190565b60006060610f928587868686610f9f565b9150915094509492505050565b600060608415610faf5784610fb4565b5a9450845b50600080885160208a0186888af191503d86811115610fd1575060005b808252806000602084013e509550959350505050565b803561ffff81168114610ff957600080fd5b919050565b60008083601f84011261101057600080fd5b50813567ffffffffffffffff81111561102857600080fd5b60208301915083602082850101111561104057600080fd5b9250929050565b6000806000806000806080878903121561106057600080fd5b61106987610fe7565b9550602087013567ffffffffffffffff8082111561108657600080fd5b6110928a838b01610ffe565b90975095506040890135915080821682146110ac57600080fd5b909350606088013590808211156110c257600080fd5b506110cf89828a01610ffe565b979a9699509497509295939492505050565b6000602082840312156110f357600080fd5b6110fc82610fe7565b9392505050565b6001600160a01b03811681146105e357600080fd5b6000806040838503121561112b57600080fd5b61113483610fe7565b9150602083013561114481611103565b809150509250929050565b634e487b7160e01b600052604160045260246000fd5b600082601f83011261117657600080fd5b813567ffffffffffffffff808211156111915761119161114f565b604051601f8301601f19908116603f011681019082821181831017156111b9576111b961114f565b816040528381528660208588010111156111d257600080fd5b836020870160208301376000602085830101528094505050505092915050565b60008060006060848603121561120757600080fd5b61121084610fe7565b9250602084013567ffffffffffffffff81111561122c57600080fd5b61123886828701611165565b9250506040840135801515811461124e57600080fd5b809150509250925092565b60006020828403121561126b57600080fd5b81356110fc81611103565b60008060006040848603121561128b57600080fd5b61129484610fe7565b9250602084013567ffffffffffffffff8111156112b057600080fd5b6112bc86828701610ffe565b9497909650939450505050565b6000815180845260005b818110156112ef576020818501810151868301820152016112d3565b506000602082860101526020601f19601f83011685010191505092915050565b6020815260006110fc60208301846112c9565b60008060008060006080868803121561133a57600080fd5b61134386610fe7565b9450602086013567ffffffffffffffff81111561135f57600080fd5b61136b88828901610ffe565b909550935050604086013561137f81611103565b9150606086013561138f81611103565b809150509295509295909350565b6000806000806000606086880312156113b557600080fd5b6113be86610fe7565b9450602086013567ffffffffffffffff808211156113db57600080fd5b6113e789838a01610ffe565b9096509450604088013591508082111561140057600080fd5b5061140d88828901610ffe565b969995985093965092949392505050565b60008060008060006080868803121561143657600080fd5b61143f86610fe7565b945061144d60208701610fe7565b935060408601359250606086013567ffffffffffffffff81111561147057600080fd5b61140d88828901610ffe565b60008060006060848603121561149157600080fd5b61149a84610fe7565b925060208401356114aa81611103565b9150604084013567ffffffffffffffff8111156114c657600080fd5b6114d286828701611165565b9150509250925092565b6020808252600f908201526e1bdb9b1e481bdddb995c8818d85b1b608a1b604082015260600190565b60006020828403121561151757600080fd5b81516110fc81611103565b60006020828403121561153457600080fd5b5051919050565b61ffff861681526001600160a01b038516602082015260a060408201819052600090611569908301866112c9565b8415156060840152828103608084015261158381856112c9565b98975050505050505050565b600080604083850312156115a257600080fd5b505080516020909101519092909150565b600181811c908216806115c757607f821691505b6020821081036115e757634e487b7160e01b600052602260045260246000fd5b50919050565b6001600160a01b038616815261ffff8516602082015260a06040820181905260009061161b908301866112c9565b828103606084015261162d81866112c9565b91505060ff831660808301529695505050505050565b8183823760009101908152919050565b61ffff8816815260c06020820152600061167060c08301896112c9565b828103604084015286815286886020830137600060208883018101919091526001600160a01b03878116606086015286166080850152601f8801601f1916909101838103820160a0850152906116c8908201856112c9565b9a995050505050505050505056fea264697066735822122094b0ff22ab144ce009a5edbb4b7b9d4664f5d34605df92666888d770d9df18c164736f6c63430008150033",
    "linkReferences": {}
  },
  "methodIdentifiers": {
    "Send(uint16,bytes,address,address)": "76791918",
    "_msgSender()": "119df25f",
    "adapterParameters(uint16)": "438131c4",
    "addRemoteAddress(uint16,address)": "08071788",
    "changeOwner(address)": "a6f9dae1",
    "estimateFees(uint16,bytes,bool)": "1122258f",
    "forceResumeReceive(uint16,bytes)": "42d65a8d",
    "isHawkToken(address)": "77767168",
    "isValidDistination(uint16)": "9dcfa8e5",
    "localChainId()": "5b056da5",
    "lzEndpoint()": "b353aaa7",
    "lzReceive(uint16,bytes,uint64,bytes)": "001d3567",
    "owner()": "8da5cb5b",
    "remoteDelivery(uint16)": "3de8b9dc",
    "retryPayload(uint16,bytes,bytes)": "aaff5f16",
    "reverseFailedPayload(uint16,address,bytes)": "df58d651",
    "setConfig(uint16,uint16,uint256,bytes)": "cbed8b9c",
    "setReceiveVersion(uint16)": "10ddb137",
    "setSendVersion(uint16)": "07e0db17",
    "setWarper(address)": "db4b7f96",
    "warpper()": "f38b2136",
    "whiteList(address)": "372c12b1"
  },
  "id": 2
}