{
  "abi": [
    {
      "inputs": [
        {
          "internalType": "address",
          "name": "endpoint",
          "type": "address"
        },
        {
          "internalType": "uint16",
          "name": "localChainId",
          "type": "uint16"
        }
      ],
      "stateMutability": "nonpayable",
      "type": "constructor"
    },
    {
      "inputs": [],
      "name": "InvalidTokenToWhiteList",
      "type": "error"
    },
    {
      "inputs": [],
      "name": "NotValidDelivery",
      "type": "error"
    },
    {
      "inputs": [],
      "name": "NotValidDistanation",
      "type": "error"
    },
    {
      "inputs": [],
      "name": "OnlyWarpper",
      "type": "error"
    },
    {
      "inputs": [],
      "name": "OnlyWhiteListedTokens",
      "type": "error"
    },
    {
      "inputs": [],
      "name": "PayloadExceedsSizeLimit",
      "type": "error"
    },
    {
      "inputs": [
        {
          "internalType": "uint16",
          "name": "chainId",
          "type": "uint16"
        },
        {
          "internalType": "bytes",
          "name": "_payload",
          "type": "bytes"
        },
        {
          "internalType": "address payable",
          "name": "_refunde",
          "type": "address"
        },
        {
          "internalType": "address",
          "name": "_payInZro",
          "type": "address"
        }
      ],
      "name": "Send",
      "outputs": [],
      "stateMutability": "payable",
      "type": "function"
    },
    {
      "inputs": [],
      "name": "_msgSender",
      "outputs": [
        {
          "internalType": "address",
          "name": "",
          "type": "address"
        }
      ],
      "stateMutability": "view",
      "type": "function"
    },
    {
      "inputs": [
        {
          "internalType": "uint16",
          "name": "chainId",
          "type": "uint16"
        }
      ],
      "name": "adapterParameters",
      "outputs": [
        {
          "internalType": "bytes",
          "name": "",
          "type": "bytes"
        }
      ],
      "stateMutability": "view",
      "type": "function"
    },
    {
      "inputs": [
        {
          "internalType": "uint16",
          "name": "chainId",
          "type": "uint16"
        },
        {
          "internalType": "address",
          "name": "remoteAddr",
          "type": "address"
        }
      ],
      "name": "addRemoteAddress",
      "outputs": [],
      "stateMutability": "nonpayable",
      "type": "function"
    },
    {
      "inputs": [
        {
          "internalType": "address",
          "name": "newOwner",
          "type": "address"
        }
      ],
      "name": "changeOwner",
      "outputs": [],
      "stateMutability": "nonpayable",
      "type": "function"
    },
    {
      "inputs": [
        {
          "internalType": "uint16",
          "name": "_dstChain",
          "type": "uint16"
        },
        {
          "internalType": "bytes",
          "name": "_payload",
          "type": "bytes"
        },
        {
          "internalType": "bool",
          "name": "_payInZRO",
          "type": "bool"
        }
      ],
      "name": "estimateFees",
      "outputs": [
        {
          "internalType": "uint256",
          "name": "nativeFee",
          "type": "uint256"
        },
        {
          "internalType": "uint256",
          "name": "zroFee",
          "type": "uint256"
        }
      ],
      "stateMutability": "view",
      "type": "function"
    },
    {
      "inputs": [
        {
          "internalType": "uint16",
          "name": "_srcChainId",
          "type": "uint16"
        },
        {
          "internalType": "bytes",
          "name": "_srcAddress",
          "type": "bytes"
        }
      ],
      "name": "forceResumeReceive",
      "outputs": [],
      "stateMutability": "nonpayable",
      "type": "function"
    },
    {
      "inputs": [
        {
          "internalType": "address",
          "name": "token",
          "type": "address"
        }
      ],
      "name": "isHawkToken",
      "outputs": [
        {
          "internalType": "bool",
          "name": "valid",
          "type": "bool"
        }
      ],
      "stateMutability": "view",
      "type": "function"
    },
    {
      "inputs": [
        {
          "internalType": "uint16",
          "name": "chainId",
          "type": "uint16"
        }
      ],
      "name": "isValidDistination",
      "outputs": [
        {
          "internalType": "bool",
          "name": "valid",
          "type": "bool"
        }
      ],
      "stateMutability": "view",
      "type": "function"
    },
    {
      "inputs": [],
      "name": "localChainId",
      "outputs": [
        {
          "internalType": "uint16",
          "name": "",
          "type": "uint16"
        }
      ],
      "stateMutability": "view",
      "type": "function"
    },
    {
      "inputs": [],
      "name": "lzEndpoint",
      "outputs": [
        {
          "internalType": "address",
          "name": "",
          "type": "address"
        }
      ],
      "stateMutability": "view",
      "type": "function"
    },
    {
      "inputs": [
        {
          "internalType": "uint16",
          "name": "_srcChainId",
          "type": "uint16"
        },
        {
          "internalType": "bytes",
          "name": "path",
          "type": "bytes"
        },
        {
          "internalType": "uint64",
          "name": "",
          "type": "uint64"
        },
        {
          "internalType": "bytes",
          "name": "_payload",
          "type": "bytes"
        }
      ],
      "name": "lzReceive",
      "outputs": [],
      "stateMutability": "nonpayable",
      "type": "function"
    },
    {
      "inputs": [],
      "name": "owner",
      "outputs": [
        {
          "internalType": "address",
          "name": "",
          "type": "address"
        }
      ],
      "stateMutability": "view",
      "type": "function"
    },
    {
      "inputs": [
        {
          "internalType": "uint16",
          "name": "chainId",
          "type": "uint16"
        }
      ],
      "name": "remoteDelivery",
      "outputs": [
        {
          "internalType": "address",
          "name": "",
          "type": "address"
        }
      ],
      "stateMutability": "view",
      "type": "function"
    },
    {
      "inputs": [
        {
          "internalType": "uint16",
          "name": "_srcChainId",
          "type": "uint16"
        },
        {
          "internalType": "bytes",
          "name": "_srcAddress",
          "type": "bytes"
        },
        {
          "internalType": "bytes",
          "name": "_payload",
          "type": "bytes"
        }
      ],
      "name": "retryPayload",
      "outputs": [],
      "stateMutability": "nonpayable",
      "type": "function"
    },
    {
      "inputs": [
        {
          "internalType": "uint16",
          "name": "srcChainId",
          "type": "uint16"
        },
        {
          "internalType": "address",
          "name": "Htoken",
          "type": "address"
        },
        {
          "internalType": "bytes",
          "name": "payload",
          "type": "bytes"
        }
      ],
      "name": "reverseFailedPayload",
      "outputs": [],
      "stateMutability": "nonpayable",
      "type": "function"
    },
    {
      "inputs": [
        {
          "internalType": "uint16",
          "name": "chainId",
          "type": "uint16"
        },
        {
          "internalType": "bytes",
          "name": "adapterParams",
          "type": "bytes"
        }
      ],
      "name": "setAdapterParams",
      "outputs": [],
      "stateMutability": "nonpayable",
      "type": "function"
    },
    {
      "inputs": [
        {
          "internalType": "uint16",
          "name": "_version",
          "type": "uint16"
        },
        {
          "internalType": "uint16",
          "name": "_chainId",
          "type": "uint16"
        },
        {
          "internalType": "uint256",
          "name": "_configType",
          "type": "uint256"
        },
        {
          "internalType": "bytes",
          "name": "_config",
          "type": "bytes"
        }
      ],
      "name": "setConfig",
      "outputs": [],
      "stateMutability": "nonpayable",
      "type": "function"
    },
    {
      "inputs": [
        {
          "internalType": "uint16",
          "name": "_version",
          "type": "uint16"
        }
      ],
      "name": "setReceiveVersion",
      "outputs": [],
      "stateMutability": "nonpayable",
      "type": "function"
    },
    {
      "inputs": [
        {
          "internalType": "uint16",
          "name": "_version",
          "type": "uint16"
        }
      ],
      "name": "setSendVersion",
      "outputs": [],
      "stateMutability": "nonpayable",
      "type": "function"
    },
    {
      "inputs": [
        {
          "internalType": "address",
          "name": "_warpper",
          "type": "address"
        }
      ],
      "name": "setWarper",
      "outputs": [],
      "stateMutability": "nonpayable",
      "type": "function"
    },
    {
      "inputs": [
        {
          "internalType": "uint16",
          "name": "chainId",
          "type": "uint16"
        },
        {
          "internalType": "address",
          "name": "remoteAddr",
          "type": "address"
        }
      ],
      "name": "test_addRemoteAddress",
      "outputs": [],
      "stateMutability": "nonpayable",
      "type": "function"
    },
    {
      "inputs": [],
      "name": "warpper",
      "outputs": [
        {
          "internalType": "address",
          "name": "",
          "type": "address"
        }
      ],
      "stateMutability": "view",
      "type": "function"
    },
    {
      "inputs": [
        {
          "internalType": "address",
          "name": "token",
          "type": "address"
        }
      ],
      "name": "whiteList",
      "outputs": [],
      "stateMutability": "nonpayable",
      "type": "function"
    }
  ],
  "bytecode": {
    "object": "0x60c060405234801561001057600080fd5b50604051611ad1380380611ad183398101604081905261002f9161005b565b6001600160a01b0390911660a052600480546001600160a01b0319163317905561ffff166080526100a8565b6000806040838503121561006e57600080fd5b82516001600160a01b038116811461008557600080fd5b602084015190925061ffff8116811461009d57600080fd5b809150509250929050565b60805160a0516119da6100f76000396000818161043f015281816104ec0152818161067e01528181610898015261102b0152600081816102ce015281816107b20152610adf01526119da6000f3fe60806040526004361061014a5760003560e01c806376791918116100b6578063aaff5f161161006f578063aaff5f161461040e578063b353aaa714610430578063cbed8b9c14610463578063db4b7f9614610483578063df58d651146104a3578063f38b2136146104c357600080fd5b80637679191814610318578063777671681461032b5780638d782734146103745780638da5cb5b146103945780639dcfa8e5146103b2578063a6f9dae1146103ee57600080fd5b8063372c12b111610108578063372c12b1146102125780633de8b9dc1461023257806342d65a8d1461026c578063438131c41461028c5780635b056da5146102b957806372ca07a7146102f857600080fd5b80621d35671461014f57806307e0db1714610171578063080717881461019157806310ddb137146101715780631122258f146101b1578063119df25f146101eb575b600080fd5b34801561015b57600080fd5b5061016f61016a3660046111b9565b6104e1565b005b34801561017d57600080fd5b5061016f61018c366004611253565b61060f565b34801561019d57600080fd5b5061016f6101ac36600461128a565b61063c565b3480156101bd57600080fd5b506101d16101cc366004611364565b610893565b604080519283526020830191909152015b60405180910390f35b3480156101f757600080fd5b50335b6040516001600160a01b0390911681526020016101e2565b34801561021e57600080fd5b5061016f61022d3660046113cb565b61093e565b34801561023e57600080fd5b506101fa61024d366004611253565b61ffff166000908152602081905260409020546001600160a01b031690565b34801561027857600080fd5b5061016f6102873660046113e8565b6109e2565b34801561029857600080fd5b506102ac6102a7366004611253565b610a0c565b6040516101e29190611481565b3480156102c557600080fd5b5060405161ffff7f00000000000000000000000000000000000000000000000000000000000000001681526020016101e2565b34801561030457600080fd5b5061016f61031336600461128a565b610ab3565b61016f610326366004611494565b610b88565b34801561033757600080fd5b506103646103463660046113cb565b6001600160a01b031660009081526006602052604090205460ff1690565b60405190151581526020016101e2565b34801561038057600080fd5b5061016f61038f36600461150f565b610bc5565b3480156103a057600080fd5b506004546001600160a01b03166101fa565b3480156103be57600080fd5b506103646103cd366004611253565b61ffff166000908152602081905260409020546001600160a01b0316151590565b3480156103fa57600080fd5b5061016f6104093660046113cb565b610c0c565b34801561041a57600080fd5b5061016f61042936600461155d565b5050505050565b34801561043c57600080fd5b507f00000000000000000000000000000000000000000000000000000000000000006101fa565b34801561046f57600080fd5b5061016f61047e3660046115de565b610c65565b34801561048f57600080fd5b5061016f61049e3660046113cb565b610c8f565b3480156104af57600080fd5b5061016f6104be36600461163c565b505050565b3480156104cf57600080fd5b506005546001600160a01b03166101fa565b336001600160a01b037f000000000000000000000000000000000000000000000000000000000000000016146105535760405162461bcd60e51b81526020600482015260126024820152711bdb9b1e48195b991c1bda5b9d0818d85b1b60721b60448201526064015b60405180910390fd5b600085858080601f0160208091040260200160405190810160405280939291908181526020018383808284376000920182905250601485015161ffff8d1682526020829052604090912054949550936001600160a01b03161592508291506105dc9050575061ffff88166000908152602081905260409020546001600160a01b03828116911614155b156105fa5760405163afbf372b60e01b815260040160405180910390fd5b610605888585610d58565b5050505050505050565b6004546001600160a01b031633146106395760405162461bcd60e51b815260040161054a9061169c565b50565b6004546001600160a01b031633146106665760405162461bcd60e51b815260040161054a9061169c565b604051639c729da160e01b81523060048201526000907f00000000000000000000000000000000000000000000000000000000000000006001600160a01b031690639c729da190602401602060405180830381865afa1580156106cd573d6000803e3d6000fd5b505050506040513d601f19601f820116820180604052508101906106f191906116c5565b60405163ea216c2160e01b815261ffff851660048201529091506000906001600160a01b0383169063ea216c2190602401602060405180830381865afa15801561073f573d6000803e3d6000fd5b505050506040513d601f19601f8201168201806040525081019061076391906116e2565b036107b05760405162461bcd60e51b815260206004820152601760248201527f636861696e20696420646f6573206e6f74206578697374000000000000000000604482015260640161054a565b7f000000000000000000000000000000000000000000000000000000000000000061ffff168361ffff16036108275760405162461bcd60e51b815260206004820152601760248201527f63616e2774206265206c6f63616c20636861696e206964000000000000000000604482015260640161054a565b61ffff83166000908152602081905260408120546001600160a01b031615610850576001610853565b60005b61ffff8516600090815260208190526040902080546001600160a01b0319166001600160a01b0386161790559050801561088d5750505050565b50505050565b6000807f00000000000000000000000000000000000000000000000000000000000000006001600160a01b03166340a7bb10863087876108d28b610a0c565b6040518663ffffffff1660e01b81526004016108f29594939291906116fb565b6040805180830381865afa15801561090e573d6000803e3d6000fd5b505050506040513d601f19601f82011682018060405250810190610932919061174f565b91509150935093915050565b6005546001600160a01b0316336001600160a01b031614610972576040516352a0d9ff60e01b815260040160405180910390fd5b6001600160a01b03811660009081526006602052604090205460ff16806109a057506001600160a01b038116155b156109be57604051632caefcbb60e21b815260040160405180910390fd5b6001600160a01b03166000908152600660205260409020805460ff19166001179055565b6004546001600160a01b031633146104be5760405162461bcd60e51b815260040161054a9061169c565b61ffff81166000908152600360205260409020805460609190610a2e90611773565b80601f0160208091040260200160405190810160405280929190818152602001828054610a5a90611773565b8015610aa75780601f10610a7c57610100808354040283529160200191610aa7565b820191906000526020600020905b815481529060010190602001808311610a8a57829003601f168201915b50505050509050919050565b6004546001600160a01b03163314610add5760405162461bcd60e51b815260040161054a9061169c565b7f000000000000000000000000000000000000000000000000000000000000000061ffff168261ffff1603610b545760405162461bcd60e51b815260206004820152601960248201527f63616e277420626520746865206c6f63616c20636861696e2000000000000000604482015260640161054a565b61ffff91909116600090815260208190526040902080546001600160a01b0319166001600160a01b03909216919091179055565b3360009081526006602052604090205460ff16610bb8576040516303aae04f60e01b815260040160405180910390fd5b6104298585858585610f51565b6004546001600160a01b03163314610bef5760405162461bcd60e51b815260040161054a9061169c565b61ffff821660009081526003602052604090206104be82826117fb565b6004546001600160a01b03163314610c365760405162461bcd60e51b815260040161054a9061169c565b6001600160a01b0381161561063957600480546001600160a01b0383166001600160a01b031990911617905550565b6004546001600160a01b031633146104295760405162461bcd60e51b815260040161054a9061169c565b6004546001600160a01b03163314610cb95760405162461bcd60e51b815260040161054a9061169c565b6005546001600160a01b031615610d1e5760405162461bcd60e51b8152602060048201526024808201527f7761727070657220616c7265616479207365742c2063616e2774206368616e6760448201526319481a5d60e21b606482015260840161054a565b600580546001600160a01b039092166001600160a01b0319909216821790556000908152600660205260409020805460ff19166001179055565b600080600080600080610da088888080601f0160208091040260200160405190810160405280939291908181526020018383808284376000920191909152506110bd92505050565b61ffff851660009081526007602090815260408083206001600160a01b038089168552925290912054969c50949a50929850909650945092501680610e9a576005546040516366517ff560e01b81526001600160a01b03909116906366517ff590610e179088908a908990899089906004016118bb565b6020604051808303816000875af1158015610e36573d6000803e3d6000fd5b505050506040513d601f19601f82011682018060405250810190610e5a91906116c5565b61ffff871660009081526007602090815260408083206001600160a01b038a81168552925290912080546001600160a01b03191691831691909117905590505b6001600160a01b03811660009081526006602052604090205460ff16610ed3576040516303aae04f60e01b815260040160405180910390fd5b6000610ee26000895a856110f3565b50905080610f4457610f44828b8b604051610efe929190611911565b60405180910390208d61ffff1660009081526001602090815260408083209383529290522080546001600160a01b039092166001600160a01b0319909216919091179055565b5050505050505050505050565b61ffff85166000908152602081905260409020546001600160a01b0316610f8b576040516332b05c2b60e21b815260040160405180910390fd5b61ffff85166000818152602081815260408083205481516bffffffffffffffffffffffff19606092831b8116828601523090921b9091166034820152815180820360280181526048909101825293835260029091529020541561101c5761ffff861660009081526002602052604090205484111561101c5760405163779957e960e01b815260040160405180910390fd5b600061102787610a0c565b90507f00000000000000000000000000000000000000000000000000000000000000006001600160a01b031663c58031003489858a8a8a8a896040518963ffffffff1660e01b81526004016110829796959493929190611921565b6000604051808303818588803b15801561109b57600080fd5b505af11580156110af573d6000803e3d6000fd5b505050505050505050505050565b6020810180516040920191820151606083015160808401805190940160a08101805190910160c001519395929491939192909190565b600060606111048587868686611111565b9150915094509492505050565b6000606084156111215784611126565b5a9450845b50600080885160208a0186888af191503d86811115611143575060005b808252806000602084013e509550959350505050565b803561ffff8116811461116b57600080fd5b919050565b60008083601f84011261118257600080fd5b50813567ffffffffffffffff81111561119a57600080fd5b6020830191508360208285010111156111b257600080fd5b9250929050565b600080600080600080608087890312156111d257600080fd5b6111db87611159565b9550602087013567ffffffffffffffff808211156111f857600080fd5b6112048a838b01611170565b909750955060408901359150808216821461121e57600080fd5b9093506060880135908082111561123457600080fd5b5061124189828a01611170565b979a9699509497509295939492505050565b60006020828403121561126557600080fd5b61126e82611159565b9392505050565b6001600160a01b038116811461063957600080fd5b6000806040838503121561129d57600080fd5b6112a683611159565b915060208301356112b681611275565b809150509250929050565b634e487b7160e01b600052604160045260246000fd5b600082601f8301126112e857600080fd5b813567ffffffffffffffff80821115611303576113036112c1565b604051601f8301601f19908116603f0116810190828211818310171561132b5761132b6112c1565b8160405283815286602085880101111561134457600080fd5b836020870160208301376000602085830101528094505050505092915050565b60008060006060848603121561137957600080fd5b61138284611159565b9250602084013567ffffffffffffffff81111561139e57600080fd5b6113aa868287016112d7565b925050604084013580151581146113c057600080fd5b809150509250925092565b6000602082840312156113dd57600080fd5b813561126e81611275565b6000806000604084860312156113fd57600080fd5b61140684611159565b9250602084013567ffffffffffffffff81111561142257600080fd5b61142e86828701611170565b9497909650939450505050565b6000815180845260005b8181101561146157602081850181015186830182015201611445565b506000602082860101526020601f19601f83011685010191505092915050565b60208152600061126e602083018461143b565b6000806000806000608086880312156114ac57600080fd5b6114b586611159565b9450602086013567ffffffffffffffff8111156114d157600080fd5b6114dd88828901611170565b90955093505060408601356114f181611275565b9150606086013561150181611275565b809150509295509295909350565b6000806040838503121561152257600080fd5b61152b83611159565b9150602083013567ffffffffffffffff81111561154757600080fd5b611553858286016112d7565b9150509250929050565b60008060008060006060868803121561157557600080fd5b61157e86611159565b9450602086013567ffffffffffffffff8082111561159b57600080fd5b6115a789838a01611170565b909650945060408801359150808211156115c057600080fd5b506115cd88828901611170565b969995985093965092949392505050565b6000806000806000608086880312156115f657600080fd5b6115ff86611159565b945061160d60208701611159565b935060408601359250606086013567ffffffffffffffff81111561163057600080fd5b6115cd88828901611170565b60008060006060848603121561165157600080fd5b61165a84611159565b9250602084013561166a81611275565b9150604084013567ffffffffffffffff81111561168657600080fd5b611692868287016112d7565b9150509250925092565b6020808252600f908201526e1bdb9b1e481bdddb995c8818d85b1b608a1b604082015260600190565b6000602082840312156116d757600080fd5b815161126e81611275565b6000602082840312156116f457600080fd5b5051919050565b61ffff861681526001600160a01b038516602082015260a0604082018190526000906117299083018661143b565b84151560608401528281036080840152611743818561143b565b98975050505050505050565b6000806040838503121561176257600080fd5b505080516020909101519092909150565b600181811c9082168061178757607f821691505b6020821081036117a757634e487b7160e01b600052602260045260246000fd5b50919050565b601f8211156104be57600081815260208120601f850160051c810160208610156117d45750805b601f850160051c820191505b818110156117f3578281556001016117e0565b505050505050565b815167ffffffffffffffff811115611815576118156112c1565b611829816118238454611773565b846117ad565b602080601f83116001811461185e57600084156118465750858301515b600019600386901b1c1916600185901b1785556117f3565b600085815260208120601f198616915b8281101561188d5788860151825594840194600190910190840161186e565b50858210156118ab5787850151600019600388901b60f8161c191681555b5050505050600190811b01905550565b6001600160a01b038616815261ffff8516602082015260a0604082018190526000906118e99083018661143b565b82810360608401526118fb818661143b565b91505060ff831660808301529695505050505050565b8183823760009101908152919050565b61ffff8816815260c06020820152600061193e60c083018961143b565b828103604084015286815286886020830137600060208883018101919091526001600160a01b03878116606086015286166080850152601f8801601f1916909101838103820160a0850152906119969082018561143b565b9a995050505050505050505056fea26469706673582212205a90c47edde523d6f60e6aa6714b9ace35216b4f3131235f75a7eb9fb63f4aef64736f6c63430008150033",
    "linkReferences": {}
  },
  "methodIdentifiers": {
    "Send(uint16,bytes,address,address)": "76791918",
    "_msgSender()": "119df25f",
    "adapterParameters(uint16)": "438131c4",
    "addRemoteAddress(uint16,address)": "08071788",
    "changeOwner(address)": "a6f9dae1",
    "estimateFees(uint16,bytes,bool)": "1122258f",
    "forceResumeReceive(uint16,bytes)": "42d65a8d",
    "isHawkToken(address)": "77767168",
    "isValidDistination(uint16)": "9dcfa8e5",
    "localChainId()": "5b056da5",
    "lzEndpoint()": "b353aaa7",
    "lzReceive(uint16,bytes,uint64,bytes)": "001d3567",
    "owner()": "8da5cb5b",
    "remoteDelivery(uint16)": "3de8b9dc",
    "retryPayload(uint16,bytes,bytes)": "aaff5f16",
    "reverseFailedPayload(uint16,address,bytes)": "df58d651",
    "setAdapterParams(uint16,bytes)": "8d782734",
    "setConfig(uint16,uint16,uint256,bytes)": "cbed8b9c",
    "setReceiveVersion(uint16)": "10ddb137",
    "setSendVersion(uint16)": "07e0db17",
    "setWarper(address)": "db4b7f96",
    "test_addRemoteAddress(uint16,address)": "72ca07a7",
    "warpper()": "f38b2136",
    "whiteList(address)": "372c12b1"
  },
  "id": 20
}