{
  "abi": [
    {
      "inputs": [
        {
          "internalType": "address",
          "name": "endpoint",
          "type": "address"
        },
        {
          "internalType": "uint16",
          "name": "localChainId",
          "type": "uint16"
        }
      ],
      "stateMutability": "nonpayable",
      "type": "constructor"
    },
    {
      "inputs": [],
      "name": "FailedToMint",
      "type": "error"
    },
    {
      "inputs": [],
      "name": "InvalidTokenToWhiteList",
      "type": "error"
    },
    {
      "inputs": [],
      "name": "NoFailedMsg",
      "type": "error"
    },
    {
      "inputs": [],
      "name": "NotValidDelivery",
      "type": "error"
    },
    {
      "inputs": [],
      "name": "NotValidDistanation",
      "type": "error"
    },
    {
      "inputs": [],
      "name": "OnlyWhiteListedTokens",
      "type": "error"
    },
    {
      "inputs": [],
      "name": "OnlyWrapper",
      "type": "error"
    },
    {
      "inputs": [],
      "name": "PayloadExceedsSizeLimit",
      "type": "error"
    },
    {
      "anonymous": false,
      "inputs": [
        {
          "indexed": true,
          "internalType": "address",
          "name": "nativeToken",
          "type": "address"
        },
        {
          "indexed": true,
          "internalType": "address",
          "name": "Htoken",
          "type": "address"
        }
      ],
      "name": "Initialized",
      "type": "event"
    },
    {
      "anonymous": false,
      "inputs": [
        {
          "indexed": true,
          "internalType": "address",
          "name": "nativeToken",
          "type": "address"
        },
        {
          "indexed": true,
          "internalType": "uint16",
          "name": "nativeChain",
          "type": "uint16"
        },
        {
          "indexed": false,
          "internalType": "address",
          "name": "localHToken",
          "type": "address"
        }
      ],
      "name": "Received",
      "type": "event"
    },
    {
      "anonymous": false,
      "inputs": [
        {
          "indexed": true,
          "internalType": "uint16",
          "name": "srcChain",
          "type": "uint16"
        },
        {
          "indexed": false,
          "internalType": "bytes32",
          "name": "payloadHash",
          "type": "bytes32"
        }
      ],
      "name": "ReversePayload",
      "type": "event"
    },
    {
      "anonymous": false,
      "inputs": [
        {
          "indexed": true,
          "internalType": "address",
          "name": "token",
          "type": "address"
        },
        {
          "indexed": true,
          "internalType": "uint16",
          "name": "dstChain",
          "type": "uint16"
        },
        {
          "indexed": false,
          "internalType": "address",
          "name": "from",
          "type": "address"
        },
        {
          "indexed": false,
          "internalType": "address",
          "name": "to",
          "type": "address"
        },
        {
          "indexed": false,
          "internalType": "uint256",
          "name": "amount",
          "type": "uint256"
        }
      ],
      "name": "Sending",
      "type": "event"
    },
    {
      "anonymous": false,
      "inputs": [
        {
          "indexed": true,
          "internalType": "uint16",
          "name": "srcChain",
          "type": "uint16"
        },
        {
          "indexed": false,
          "internalType": "uint64",
          "name": "nonce",
          "type": "uint64"
        },
        {
          "indexed": false,
          "internalType": "bytes32",
          "name": "payloadHash",
          "type": "bytes32"
        }
      ],
      "name": "StoredPayload",
      "type": "event"
    },
    {
      "inputs": [
        {
          "internalType": "bytes",
          "name": "payload",
          "type": "bytes"
        }
      ],
      "name": "SafeReceive",
      "outputs": [],
      "stateMutability": "nonpayable",
      "type": "function"
    },
    {
      "inputs": [
        {
          "internalType": "uint16",
          "name": "chainId",
          "type": "uint16"
        },
        {
          "internalType": "bytes",
          "name": "_payload",
          "type": "bytes"
        },
        {
          "internalType": "address payable",
          "name": "_refunde",
          "type": "address"
        },
        {
          "internalType": "address",
          "name": "_payInZro",
          "type": "address"
        }
      ],
      "name": "Send",
      "outputs": [],
      "stateMutability": "payable",
      "type": "function"
    },
    {
      "inputs": [
        {
          "internalType": "uint16",
          "name": "chainId",
          "type": "uint16"
        }
      ],
      "name": "adapterParameters",
      "outputs": [
        {
          "internalType": "bytes",
          "name": "",
          "type": "bytes"
        }
      ],
      "stateMutability": "view",
      "type": "function"
    },
    {
      "inputs": [
        {
          "internalType": "uint16",
          "name": "chainId",
          "type": "uint16"
        },
        {
          "internalType": "address",
          "name": "remoteAddr",
          "type": "address"
        }
      ],
      "name": "addRemoteAddress",
      "outputs": [],
      "stateMutability": "nonpayable",
      "type": "function"
    },
    {
      "inputs": [
        {
          "internalType": "address",
          "name": "newOwner",
          "type": "address"
        }
      ],
      "name": "changeOwner",
      "outputs": [],
      "stateMutability": "nonpayable",
      "type": "function"
    },
    {
      "inputs": [
        {
          "internalType": "uint16",
          "name": "_dstChain",
          "type": "uint16"
        },
        {
          "internalType": "bytes",
          "name": "_payload",
          "type": "bytes"
        },
        {
          "internalType": "bool",
          "name": "_payInZRO",
          "type": "bool"
        }
      ],
      "name": "estimateFees",
      "outputs": [
        {
          "internalType": "uint256",
          "name": "nativeFee",
          "type": "uint256"
        },
        {
          "internalType": "uint256",
          "name": "zroFee",
          "type": "uint256"
        }
      ],
      "stateMutability": "view",
      "type": "function"
    },
    {
      "inputs": [
        {
          "internalType": "uint16",
          "name": "_srcChainId",
          "type": "uint16"
        },
        {
          "internalType": "bytes",
          "name": "_srcAddress",
          "type": "bytes"
        }
      ],
      "name": "forceResumeReceive",
      "outputs": [],
      "stateMutability": "nonpayable",
      "type": "function"
    },
    {
      "inputs": [
        {
          "internalType": "address",
          "name": "token",
          "type": "address"
        }
      ],
      "name": "isHawkToken",
      "outputs": [
        {
          "internalType": "bool",
          "name": "valid",
          "type": "bool"
        }
      ],
      "stateMutability": "view",
      "type": "function"
    },
    {
      "inputs": [
        {
          "internalType": "uint16",
          "name": "chainId",
          "type": "uint16"
        }
      ],
      "name": "isValidDistination",
      "outputs": [
        {
          "internalType": "bool",
          "name": "valid",
          "type": "bool"
        }
      ],
      "stateMutability": "view",
      "type": "function"
    },
    {
      "inputs": [],
      "name": "localChainId",
      "outputs": [
        {
          "internalType": "uint16",
          "name": "",
          "type": "uint16"
        }
      ],
      "stateMutability": "view",
      "type": "function"
    },
    {
      "inputs": [],
      "name": "lzEndpoint",
      "outputs": [
        {
          "internalType": "address",
          "name": "",
          "type": "address"
        }
      ],
      "stateMutability": "view",
      "type": "function"
    },
    {
      "inputs": [
        {
          "internalType": "uint16",
          "name": "_srcChainId",
          "type": "uint16"
        },
        {
          "internalType": "bytes",
          "name": "path",
          "type": "bytes"
        },
        {
          "internalType": "uint64",
          "name": "nonce",
          "type": "uint64"
        },
        {
          "internalType": "bytes",
          "name": "_payload",
          "type": "bytes"
        }
      ],
      "name": "lzReceive",
      "outputs": [],
      "stateMutability": "nonpayable",
      "type": "function"
    },
    {
      "inputs": [],
      "name": "owner",
      "outputs": [
        {
          "internalType": "address",
          "name": "",
          "type": "address"
        }
      ],
      "stateMutability": "view",
      "type": "function"
    },
    {
      "inputs": [
        {
          "internalType": "uint16",
          "name": "chainId",
          "type": "uint16"
        }
      ],
      "name": "remoteDelivery",
      "outputs": [
        {
          "internalType": "address",
          "name": "",
          "type": "address"
        }
      ],
      "stateMutability": "view",
      "type": "function"
    },
    {
      "inputs": [
        {
          "internalType": "uint16",
          "name": "_srcChainId",
          "type": "uint16"
        },
        {
          "internalType": "uint64",
          "name": "nonce",
          "type": "uint64"
        },
        {
          "internalType": "bytes",
          "name": "_payload",
          "type": "bytes"
        },
        {
          "internalType": "address",
          "name": "_payInZro",
          "type": "address"
        }
      ],
      "name": "reversePayload",
      "outputs": [],
      "stateMutability": "payable",
      "type": "function"
    },
    {
      "inputs": [
        {
          "internalType": "uint16",
          "name": "chainId",
          "type": "uint16"
        },
        {
          "internalType": "bytes",
          "name": "adapterParams",
          "type": "bytes"
        }
      ],
      "name": "setAdapterParams",
      "outputs": [],
      "stateMutability": "nonpayable",
      "type": "function"
    },
    {
      "inputs": [
        {
          "internalType": "uint16",
          "name": "_version",
          "type": "uint16"
        },
        {
          "internalType": "uint16",
          "name": "_chainId",
          "type": "uint16"
        },
        {
          "internalType": "uint256",
          "name": "_configType",
          "type": "uint256"
        },
        {
          "internalType": "bytes",
          "name": "_config",
          "type": "bytes"
        }
      ],
      "name": "setConfig",
      "outputs": [],
      "stateMutability": "nonpayable",
      "type": "function"
    },
    {
      "inputs": [
        {
          "internalType": "uint16",
          "name": "_version",
          "type": "uint16"
        }
      ],
      "name": "setReceiveVersion",
      "outputs": [],
      "stateMutability": "nonpayable",
      "type": "function"
    },
    {
      "inputs": [
        {
          "internalType": "uint16",
          "name": "_version",
          "type": "uint16"
        }
      ],
      "name": "setSendVersion",
      "outputs": [],
      "stateMutability": "nonpayable",
      "type": "function"
    },
    {
      "inputs": [
        {
          "internalType": "address",
          "name": "_wrapper",
          "type": "address"
        }
      ],
      "name": "setWraper",
      "outputs": [],
      "stateMutability": "nonpayable",
      "type": "function"
    },
    {
      "inputs": [
        {
          "internalType": "uint16",
          "name": "chainId",
          "type": "uint16"
        },
        {
          "internalType": "address",
          "name": "remoteAddr",
          "type": "address"
        }
      ],
      "name": "test_addRemoteAddress",
      "outputs": [],
      "stateMutability": "nonpayable",
      "type": "function"
    },
    {
      "inputs": [
        {
          "internalType": "address",
          "name": "htoken",
          "type": "address"
        },
        {
          "internalType": "uint16",
          "name": "nativeChain",
          "type": "uint16"
        },
        {
          "internalType": "address",
          "name": "nativeToken",
          "type": "address"
        }
      ],
      "name": "whiteList",
      "outputs": [],
      "stateMutability": "nonpayable",
      "type": "function"
    },
    {
      "inputs": [],
      "name": "wrapper",
      "outputs": [
        {
          "internalType": "address",
          "name": "",
          "type": "address"
        }
      ],
      "stateMutability": "view",
      "type": "function"
    }
  ],
  "bytecode": {
    "object": "0x60c060405234801561001057600080fd5b5060405162001fdf38038062001fdf8339810160408190526100319161005d565b6001600160a01b0390911660a052600480546001600160a01b0319163317905561ffff166080526100aa565b6000806040838503121561007057600080fd5b82516001600160a01b038116811461008757600080fd5b602084015190925061ffff8116811461009f57600080fd5b809150509250929050565b60805160a051611ec96200011660003960008181610472015281816105b2015281816108e80152818161099201528181610bea01528181610c2601528181610dd6015281816110e4015261142d01526000818161030501528181610ac60152610f190152611ec96000f3fe60806040526004361061013d5760003560e01c80635b056da5116100b65780639dcfa8e51161006f5780639dcfa8e5146103e9578063a6f9dae114610425578063ac210cc714610445578063b353aaa714610463578063cbed8b9c14610496578063e8a4177a146104b657600080fd5b80635b056da5146102f057806372ca07a71461032f578063767919181461034f57806377767168146103625780638d782734146103ab5780638da5cb5b146103cb57600080fd5b806310ddb1371161010857806310ddb137146101d75780631122258f146101f757806318ed4316146102315780633de8b9dc1461025157806342d65a8d146102a3578063438131c4146102c357600080fd5b80620bc7fc146101425780621d356714610157578062b3c4511461017757806307e0db171461019757806308071788146101b7575b600080fd5b610155610150366004611600565b6104d6565b005b34801561016357600080fd5b50610155610172366004611678565b6105a7565b34801561018357600080fd5b5061015561019236600461170b565b6107d1565b3480156101a357600080fd5b506101556101b2366004611754565b6108a5565b3480156101c357600080fd5b506101556101d2366004611776565b610950565b3480156101e357600080fd5b506101556101f2366004611754565b610ba7565b34801561020357600080fd5b5061021761021236600461184f565b610c21565b604080519283526020830191909152015b60405180910390f35b34801561023d57600080fd5b5061015561024c3660046118aa565b610ccc565b34801561025d57600080fd5b5061028b61026c366004611754565b61ffff166000908152602081905260409020546001600160a01b031690565b6040516001600160a01b039091168152602001610228565b3480156102af57600080fd5b506101556102be3660046118c7565b610d95565b3480156102cf57600080fd5b506102e36102de366004611754565b610e46565b604051610228919061195f565b3480156102fc57600080fd5b5060405161ffff7f0000000000000000000000000000000000000000000000000000000000000000168152602001610228565b34801561033b57600080fd5b5061015561034a366004611776565b610eed565b61015561035d366004611972565b610fc2565b34801561036e57600080fd5b5061039b61037d3660046118aa565b6001600160a01b031660009081526006602052604090205460ff1690565b6040519015158152602001610228565b3480156103b757600080fd5b506101556103c63660046119de565b610fff565b3480156103d757600080fd5b506004546001600160a01b031661028b565b3480156103f557600080fd5b5061039b610404366004611754565b61ffff166000908152602081905260409020546001600160a01b0316151590565b34801561043157600080fd5b506101556104403660046118aa565b61104b565b34801561045157600080fd5b506005546001600160a01b031661028b565b34801561046f57600080fd5b507f000000000000000000000000000000000000000000000000000000000000000061028b565b3480156104a257600080fd5b506101556104b1366004611a2b565b6110a3565b3480156104c257600080fd5b506101556104d1366004611a99565b61114f565b600083836040516104e8929190611ada565b604080519182900390912061ffff88166000908152600160209081528382206001600160401b038a16835290529190912054909150811461053c57604051639628dfbd60e01b815260040160405180910390fd5b6105498685853386611353565b61ffff861660008181526001602090815260408083206001600160401b038a1690935291815290518381527f6b9e5f9a38b6a642ee4a4fbe6962d3dfed66eed5a7e764597e8496269d39db1c910160405180910390a2505050505050565b336001600160a01b037f000000000000000000000000000000000000000000000000000000000000000016146106195760405162461bcd60e51b81526020600482015260126024820152711bdb9b1e48195b991c1bda5b9d0818d85b1b60721b60448201526064015b60405180910390fd5b600085858080601f0160208091040260200160405190810160405280939291908181526020018383808284376000920182905250601485015161ffff8d1682526020829052604090912054949550936001600160a01b03161592508291506106a29050575061ffff88166000908152602081905260409020546001600160a01b03828116911614155b156106c05760405163afbf372b60e01b815260040160405180910390fd5b60006107276113885a6106d39190611aea565b6040516374520bbd60e11b906106ef9089908990602401611b3a565b60408051601f198184030181529190526020810180516001600160e01b03166001600160e01b031990931692909217909152906114bf565b509050806107c65760008585604051610741929190611ada565b6040518091039020905061077c8a888361ffff90921660009081526001602090815260408083206001600160401b0390941683529290522055565b604080516001600160401b03891681526020810183905261ffff8c16917fecfedd2abec8cba8cf695ead74b6c2b4867aed54679cfc4e82522b49747925ca910160405180910390a2505b505050505050505050565b6005546001600160a01b0316336001600160a01b031614610805576040516324724d7d60e21b815260040160405180910390fd5b6001600160a01b03831660009081526006602052604090205460ff168061083357506001600160a01b038316155b1561085157604051632caefcbb60e21b815260040160405180910390fd5b6001600160a01b039283166000818152600660209081526040808320805460ff1916600117905561ffff909516825260078152848220939095168152919093522080546001600160a01b0319169091179055565b6004546001600160a01b031633146108cf5760405162461bcd60e51b815260040161061090611b56565b6040516307e0db1760e01b815261ffff821660048201527f00000000000000000000000000000000000000000000000000000000000000006001600160a01b0316906307e0db17906024015b600060405180830381600087803b15801561093557600080fd5b505af1158015610949573d6000803e3d6000fd5b5050505050565b6004546001600160a01b0316331461097a5760405162461bcd60e51b815260040161061090611b56565b604051639c729da160e01b81523060048201526000907f00000000000000000000000000000000000000000000000000000000000000006001600160a01b031690639c729da190602401602060405180830381865afa1580156109e1573d6000803e3d6000fd5b505050506040513d601f19601f82011682018060405250810190610a059190611b7f565b60405163ea216c2160e01b815261ffff851660048201529091506000906001600160a01b0383169063ea216c2190602401602060405180830381865afa158015610a53573d6000803e3d6000fd5b505050506040513d601f19601f82011682018060405250810190610a779190611b9c565b03610ac45760405162461bcd60e51b815260206004820152601760248201527f636861696e20696420646f6573206e6f742065786973740000000000000000006044820152606401610610565b7f000000000000000000000000000000000000000000000000000000000000000061ffff168361ffff1603610b3b5760405162461bcd60e51b815260206004820152601760248201527f63616e2774206265206c6f63616c20636861696e2069640000000000000000006044820152606401610610565b61ffff83166000908152602081905260408120546001600160a01b031615610b64576001610b67565b60005b61ffff8516600090815260208190526040902080546001600160a01b0319166001600160a01b03861617905590508015610ba15750505050565b50505050565b6004546001600160a01b03163314610bd15760405162461bcd60e51b815260040161061090611b56565b6040516310ddb13760e01b815261ffff821660048201527f00000000000000000000000000000000000000000000000000000000000000006001600160a01b0316906310ddb1379060240161091b565b6000807f00000000000000000000000000000000000000000000000000000000000000006001600160a01b03166340a7bb1086308787610c608b610e46565b6040518663ffffffff1660e01b8152600401610c80959493929190611bb5565b6040805180830381865afa158015610c9c573d6000803e3d6000fd5b505050506040513d601f19601f82011682018060405250810190610cc09190611c09565b91509150935093915050565b6004546001600160a01b03163314610cf65760405162461bcd60e51b815260040161061090611b56565b6005546001600160a01b031615610d5b5760405162461bcd60e51b8152602060048201526024808201527f7772617070657220616c7265616479207365742c2063616e2774206368616e6760448201526319481a5d60e21b6064820152608401610610565b600580546001600160a01b039092166001600160a01b0319909216821790556000908152600660205260409020805460ff19166001179055565b6004546001600160a01b03163314610dbf5760405162461bcd60e51b815260040161061090611b56565b6040516342d65a8d60e01b81526001600160a01b037f000000000000000000000000000000000000000000000000000000000000000016906342d65a8d90610e0f90869086908690600401611c2d565b600060405180830381600087803b158015610e2957600080fd5b505af1158015610e3d573d6000803e3d6000fd5b50505050505050565b61ffff81166000908152600360205260409020805460609190610e6890611c54565b80601f0160208091040260200160405190810160405280929190818152602001828054610e9490611c54565b8015610ee15780601f10610eb657610100808354040283529160200191610ee1565b820191906000526020600020905b815481529060010190602001808311610ec457829003601f168201915b50505050509050919050565b6004546001600160a01b03163314610f175760405162461bcd60e51b815260040161061090611b56565b7f000000000000000000000000000000000000000000000000000000000000000061ffff168261ffff1603610f8e5760405162461bcd60e51b815260206004820152601960248201527f63616e277420626520746865206c6f63616c20636861696e20000000000000006044820152606401610610565b61ffff91909116600090815260208190526040902080546001600160a01b0319166001600160a01b03909216919091179055565b3360009081526006602052604090205460ff16610ff2576040516303aae04f60e01b815260040160405180910390fd5b6109498585858585611353565b6004546001600160a01b031633146110295760405162461bcd60e51b815260040161061090611b56565b61ffff821660009081526003602052604090206110468282611cdc565b505050565b6004546001600160a01b031633146110755760405162461bcd60e51b815260040161061090611b56565b6001600160a01b038116156110a057600480546001600160a01b0319166001600160a01b0383161790555b50565b6004546001600160a01b031633146110cd5760405162461bcd60e51b815260040161061090611b56565b6040516332fb62e760e21b81526001600160a01b037f0000000000000000000000000000000000000000000000000000000000000000169063cbed8b9c906111219088908890889088908890600401611d9b565b600060405180830381600087803b15801561113b57600080fd5b505af11580156107c6573d6000803e3d6000fd5b33301461118f5760405162461bcd60e51b815260206004820152600e60248201526d1bdb9b1e481cd95b198818d85b1b60921b6044820152606401610610565b6000806000806000806111d788888080601f0160208091040260200160405190810160405280939291908181526020018383808284376000920191909152506114f892505050565b61ffff851660009081526007602090815260408083206001600160a01b038089168552925290912054969c50949a50929850909650945092501680611294576005546040516366517ff560e01b81526001600160a01b03909116906366517ff59061124e9088908a90899089908990600401611dd4565b6020604051808303816000875af115801561126d573d6000803e3d6000fd5b505050506040513d601f19601f820116820180604052508101906112919190611b7f565b90505b6001600160a01b03811660009081526006602052604090205460ff166112cd576040516303aae04f60e01b815260040160405180910390fd5b60006112e060005a8a919085600061152d565b50905080611300576040516248195d60e01b815260040160405180910390fd5b6040516001600160a01b03838116825261ffff891691908816907f89db1f58450c4c447f34fb0d22f42dfc892e5d7c7c78d6718fb29142e97594e79060200160405180910390a350505050505050505050565b61ffff85166000908152602081905260409020546001600160a01b031661138d576040516332b05c2b60e21b815260040160405180910390fd5b61ffff85166000818152602081815260408083205481516bffffffffffffffffffffffff19606092831b8116828601523090921b9091166034820152815180820360280181526048909101825293835260029091529020541561141e5761ffff861660009081526002602052604090205484111561141e5760405163779957e960e01b815260040160405180910390fd5b600061142987610e46565b90507f00000000000000000000000000000000000000000000000000000000000000006001600160a01b031663c58031003489858a8a8a8a896040518963ffffffff1660e01b81526004016114849796959493929190611e2a565b6000604051808303818588803b15801561149d57600080fd5b505af11580156114b1573d6000803e3d6000fd5b505050505050505050505050565b6000606082156114cf57826114d4565b5a9250825b50600080855160208701343088f191503d808252806000602084013e509250929050565b602081018051602292019182015160368301516056840180516076950194850180516077960195909501519395929491939092565b60006060841561153d5784611542565b5a9450845b50600080885160208a0186888af191503d8681111561155f575060005b808252806000602084013e509550959350505050565b803561ffff8116811461158757600080fd5b919050565b80356001600160401b038116811461158757600080fd5b60008083601f8401126115b557600080fd5b5081356001600160401b038111156115cc57600080fd5b6020830191508360208285010111156115e457600080fd5b9250929050565b6001600160a01b03811681146110a057600080fd5b60008060008060006080868803121561161857600080fd5b61162186611575565b945061162f6020870161158c565b935060408601356001600160401b0381111561164a57600080fd5b611656888289016115a3565b909450925050606086013561166a816115eb565b809150509295509295909350565b6000806000806000806080878903121561169157600080fd5b61169a87611575565b955060208701356001600160401b03808211156116b657600080fd5b6116c28a838b016115a3565b90975095508591506116d660408a0161158c565b945060608901359150808211156116ec57600080fd5b506116f989828a016115a3565b979a9699509497509295939492505050565b60008060006060848603121561172057600080fd5b833561172b816115eb565b925061173960208501611575565b91506040840135611749816115eb565b809150509250925092565b60006020828403121561176657600080fd5b61176f82611575565b9392505050565b6000806040838503121561178957600080fd5b61179283611575565b915060208301356117a2816115eb565b809150509250929050565b634e487b7160e01b600052604160045260246000fd5b600082601f8301126117d457600080fd5b81356001600160401b03808211156117ee576117ee6117ad565b604051601f8301601f19908116603f01168101908282118183101715611816576118166117ad565b8160405283815286602085880101111561182f57600080fd5b836020870160208301376000602085830101528094505050505092915050565b60008060006060848603121561186457600080fd5b61186d84611575565b925060208401356001600160401b0381111561188857600080fd5b611894868287016117c3565b9250506040840135801515811461174957600080fd5b6000602082840312156118bc57600080fd5b813561176f816115eb565b6000806000604084860312156118dc57600080fd5b6118e584611575565b925060208401356001600160401b0381111561190057600080fd5b61190c868287016115a3565b9497909650939450505050565b6000815180845260005b8181101561193f57602081850181015186830182015201611923565b506000602082860101526020601f19601f83011685010191505092915050565b60208152600061176f6020830184611919565b60008060008060006080868803121561198a57600080fd5b61199386611575565b945060208601356001600160401b038111156119ae57600080fd5b6119ba888289016115a3565b90955093505060408601356119ce816115eb565b9150606086013561166a816115eb565b600080604083850312156119f157600080fd5b6119fa83611575565b915060208301356001600160401b03811115611a1557600080fd5b611a21858286016117c3565b9150509250929050565b600080600080600060808688031215611a4357600080fd5b611a4c86611575565b9450611a5a60208701611575565b93506040860135925060608601356001600160401b03811115611a7c57600080fd5b611a88888289016115a3565b969995985093965092949392505050565b60008060208385031215611aac57600080fd5b82356001600160401b03811115611ac257600080fd5b611ace858286016115a3565b90969095509350505050565b8183823760009101908152919050565b81810381811115611b0b57634e487b7160e01b600052601160045260246000fd5b92915050565b81835281816020850137506000828201602090810191909152601f909101601f19169091010190565b602081526000611b4e602083018486611b11565b949350505050565b6020808252600f908201526e1bdb9b1e481bdddb995c8818d85b1b608a1b604082015260600190565b600060208284031215611b9157600080fd5b815161176f816115eb565b600060208284031215611bae57600080fd5b5051919050565b61ffff861681526001600160a01b038516602082015260a060408201819052600090611be390830186611919565b84151560608401528281036080840152611bfd8185611919565b98975050505050505050565b60008060408385031215611c1c57600080fd5b505080516020909101519092909150565b61ffff84168152604060208201526000611c4b604083018486611b11565b95945050505050565b600181811c90821680611c6857607f821691505b602082108103611c8857634e487b7160e01b600052602260045260246000fd5b50919050565b601f82111561104657600081815260208120601f850160051c81016020861015611cb55750805b601f850160051c820191505b81811015611cd457828155600101611cc1565b505050505050565b81516001600160401b03811115611cf557611cf56117ad565b611d0981611d038454611c54565b84611c8e565b602080601f831160018114611d3e5760008415611d265750858301515b600019600386901b1c1916600185901b178555611cd4565b600085815260208120601f198616915b82811015611d6d57888601518255948401946001909101908401611d4e565b5085821015611d8b5787850151600019600388901b60f8161c191681555b5050505050600190811b01905550565b600061ffff808816835280871660208401525084604083015260806060830152611dc9608083018486611b11565b979650505050505050565b6001600160a01b038616815261ffff8516602082015260a060408201819052600090611e0290830186611919565b8281036060840152611e148186611919565b91505060ff831660808301529695505050505050565b61ffff8816815260c060208201526000611e4760c0830189611919565b8281036040840152611e5a81888a611b11565b6001600160a01b0387811660608601528616608085015283810360a08501529050611e858185611919565b9a995050505050505050505056fea264697066735822122055484b0a3c2c7922877aa735145d79a02f065edad4ae99ee13a8fca9ec7ba2c164736f6c63430008150033",
    "linkReferences": {}
  },
  "methodIdentifiers": {
    "SafeReceive(bytes)": "e8a4177a",
    "Send(uint16,bytes,address,address)": "76791918",
    "adapterParameters(uint16)": "438131c4",
    "addRemoteAddress(uint16,address)": "08071788",
    "changeOwner(address)": "a6f9dae1",
    "estimateFees(uint16,bytes,bool)": "1122258f",
    "forceResumeReceive(uint16,bytes)": "42d65a8d",
    "isHawkToken(address)": "77767168",
    "isValidDistination(uint16)": "9dcfa8e5",
    "localChainId()": "5b056da5",
    "lzEndpoint()": "b353aaa7",
    "lzReceive(uint16,bytes,uint64,bytes)": "001d3567",
    "owner()": "8da5cb5b",
    "remoteDelivery(uint16)": "3de8b9dc",
    "reversePayload(uint16,uint64,bytes,address)": "000bc7fc",
    "setAdapterParams(uint16,bytes)": "8d782734",
    "setConfig(uint16,uint16,uint256,bytes)": "cbed8b9c",
    "setReceiveVersion(uint16)": "10ddb137",
    "setSendVersion(uint16)": "07e0db17",
    "setWraper(address)": "18ed4316",
    "test_addRemoteAddress(uint16,address)": "72ca07a7",
    "whiteList(address,uint16,address)": "00b3c451",
    "wrapper()": "ac210cc7"
  },
  "id": 24
}