{
  "abi": [
    {
      "inputs": [
        {
          "internalType": "address",
          "name": "_HtokenImpl",
          "type": "address"
        },
        {
          "internalType": "uint16",
          "name": "_chainId",
          "type": "uint16"
        },
        {
          "internalType": "address",
          "name": "_delivery",
          "type": "address"
        }
      ],
      "stateMutability": "nonpayable",
      "type": "constructor"
    },
    {
      "inputs": [
        {
          "internalType": "string",
          "name": "Err",
          "type": "string"
        }
      ],
      "name": "BrokenInvariant",
      "type": "error"
    },
    {
      "inputs": [
        {
          "internalType": "string",
          "name": "reason",
          "type": "string"
        }
      ],
      "name": "ChainIdCantBeLocal",
      "type": "error"
    },
    {
      "inputs": [],
      "name": "FailedToInitializeClone",
      "type": "error"
    },
    {
      "inputs": [
        {
          "internalType": "address",
          "name": "from",
          "type": "address"
        }
      ],
      "name": "FailedToTransferFrom",
      "type": "error"
    },
    {
      "inputs": [],
      "name": "FailedToTransferTokens",
      "type": "error"
    },
    {
      "inputs": [],
      "name": "NoNativeToken",
      "type": "error"
    },
    {
      "inputs": [],
      "name": "OnlyValidDelivery",
      "type": "error"
    },
    {
      "inputs": [],
      "name": "failedToCreateClone",
      "type": "error"
    },
    {
      "inputs": [
        {
          "components": [
            {
              "internalType": "address",
              "name": "nativeToken",
              "type": "address"
            },
            {
              "internalType": "uint16",
              "name": "nativeChain",
              "type": "uint16"
            }
          ],
          "internalType": "struct HTinfo",
          "name": "HtokenInfo",
          "type": "tuple"
        }
      ],
      "name": "tokenAlreadyWrapped",
      "type": "error"
    },
    {
      "inputs": [],
      "name": "HtokenImplementation",
      "outputs": [
        {
          "internalType": "address",
          "name": "",
          "type": "address"
        }
      ],
      "stateMutability": "view",
      "type": "function"
    },
    {
      "inputs": [
        {
          "internalType": "address",
          "name": "nativeToken",
          "type": "address"
        },
        {
          "internalType": "uint16",
          "name": "nativeChainId",
          "type": "uint16"
        },
        {
          "internalType": "string",
          "name": "name",
          "type": "string"
        },
        {
          "internalType": "string",
          "name": "symbol",
          "type": "string"
        },
        {
          "internalType": "uint8",
          "name": "decimals",
          "type": "uint8"
        }
      ],
      "name": "clone",
      "outputs": [
        {
          "internalType": "address",
          "name": "",
          "type": "address"
        }
      ],
      "stateMutability": "nonpayable",
      "type": "function"
    },
    {
      "inputs": [],
      "name": "delivery",
      "outputs": [
        {
          "internalType": "address",
          "name": "",
          "type": "address"
        }
      ],
      "stateMutability": "view",
      "type": "function"
    },
    {
      "inputs": [
        {
          "internalType": "address",
          "name": "token",
          "type": "address"
        },
        {
          "internalType": "uint16",
          "name": "chainId",
          "type": "uint16"
        }
      ],
      "name": "getHtoken",
      "outputs": [
        {
          "internalType": "address",
          "name": "",
          "type": "address"
        }
      ],
      "stateMutability": "view",
      "type": "function"
    },
    {
      "inputs": [
        {
          "internalType": "address",
          "name": "Htoken",
          "type": "address"
        }
      ],
      "name": "getHtokenInfo",
      "outputs": [
        {
          "components": [
            {
              "internalType": "address",
              "name": "nativeToken",
              "type": "address"
            },
            {
              "internalType": "uint16",
              "name": "nativeChain",
              "type": "uint16"
            }
          ],
          "internalType": "struct HTinfo",
          "name": "info",
          "type": "tuple"
        }
      ],
      "stateMutability": "view",
      "type": "function"
    },
    {
      "inputs": [
        {
          "internalType": "address",
          "name": "token",
          "type": "address"
        },
        {
          "internalType": "uint256",
          "name": "amount",
          "type": "uint256"
        },
        {
          "internalType": "address",
          "name": "to",
          "type": "address"
        }
      ],
      "name": "unwrap",
      "outputs": [
        {
          "internalType": "uint256",
          "name": "",
          "type": "uint256"
        }
      ],
      "stateMutability": "nonpayable",
      "type": "function"
    },
    {
      "inputs": [
        {
          "internalType": "address",
          "name": "token",
          "type": "address"
        },
        {
          "internalType": "uint256",
          "name": "amount",
          "type": "uint256"
        },
        {
          "internalType": "address",
          "name": "to",
          "type": "address"
        }
      ],
      "name": "wrap",
      "outputs": [
        {
          "internalType": "uint256",
          "name": "",
          "type": "uint256"
        }
      ],
      "stateMutability": "nonpayable",
      "type": "function"
    }
  ],
  "bytecode": {
    "object": "0x60e060405234801561001057600080fd5b50604051620015bf380380620015bf8339810160408190526100319161006d565b6001600160a01b0392831660805261ffff90911660a0521660c0526100b9565b80516001600160a01b038116811461006857600080fd5b919050565b60008060006060848603121561008257600080fd5b61008b84610051565b9250602084015161ffff811681146100a257600080fd5b91506100b060408501610051565b90509250925092565b60805160a05160c0516114a6620001196000396000818160840152818161051f01528181610d020152610e1d01526000818161034c01528181610390015281816105ba015261069d0152600081816101a10152610c4f01526114a66000f3fe608060405234801561001057600080fd5b506004361061007d5760003560e01c806373bfbc991161005b57806373bfbc99146100f55780637bda9f3714610108578063b68f43451461018c578063d2ca0e2c1461019f57600080fd5b80633d5a70c2146100825780635c15155e146100c157806366517ff5146100e2575b600080fd5b7f00000000000000000000000000000000000000000000000000000000000000005b6040516001600160a01b0390911681526020015b60405180910390f35b6100d46100cf366004611067565b6101c5565b6040519081526020016100b8565b6100a46100f036600461118c565b610512565b6100a4610103366004611226565b61064f565b610164610116366004611259565b604080518082018252600080825260209182018190526001600160a01b039384168152600182528290208251808401909352549283168252600160a01b90920461ffff169181019190915290565b6040805182516001600160a01b0316815260209283015161ffff1692810192909252016100b8565b6100d461019a366004611067565b61067e565b7f00000000000000000000000000000000000000000000000000000000000000006100a4565b6001600160a01b038316600090815260016020526040812054600160a01b900461ffff1615610245576001600160a01b038416600090815260016020526040908190209051635a2d1a9b60e01b815261023c919060040190546001600160a01b038116825260a01c61ffff16602082015260400190565b60405180910390fd5b6040516370a0823160e01b81523060048201526000906001600160a01b038616906370a0823190602401602060405180830381865afa15801561028c573d6000803e3d6000fd5b505050506040513d601f19601f820116820180604052508101906102b0919061127b565b6040513360248201523060448201526064810186905290915060009060840160408051601f198184030181529190526020810180516001600160e01b03166323b872dd60e01b1790529050600061030a8282808a81610aea565b5090508061032d5760405163316189b560e01b815233600482015260240161023c565b6001600160a01b0380881660009081526020818152604080832061ffff7f0000000000000000000000000000000000000000000000000000000000000000168452909152902054168061041d576000806103868a610b32565b915091506104188a7f000000000000000000000000000000000000000000000000000000000000000084848e6001600160a01b031663313ce5676040518163ffffffff1660e01b8152600401602060405180830381865afa1580156103ef573d6000803e3d6000fd5b505050506040513d601f19601f820116820180604052508101906104139190611294565b610c48565b925050505b6000816001600160a01b03166318160ddd6040518163ffffffff1660e01b8152600401602060405180830381865afa15801561045d573d6000803e3d6000fd5b505050506040513d601f19601f82011682018060405250810190610481919061127b565b6040516340c10f1960e01b81526001600160a01b038981166004830152602482018b9052919250908316906340c10f19906044016020604051808303816000875af11580156104d4573d6000803e3d6000fd5b505050506040513d601f19601f820116820180604052508101906104f8919061127b565b5061050589838784610f03565b5095979650505050505050565b6000336001600160a01b037f0000000000000000000000000000000000000000000000000000000000000000161461055d57604051633756e4a760e11b815260040160405180910390fd5b6001600160a01b0386811660009081526020818152604080832061ffff8a16845290915290205416156105b857506001600160a01b0380861660009081526020818152604080832061ffff8916845290915290205416610646565b7f000000000000000000000000000000000000000000000000000000000000000061ffff168561ffff1603610633576040516001622b965560e21b0319815260206004820152601e60248201527f6f6e6c7920777261707065722063616e20636c6f6e65206e6174697665200000604482015260640161023c565b60006106428787878787610c48565b9150505b95945050505050565b6001600160a01b0380831660009081526020818152604080832061ffff86168452909152902054165b92915050565b6001600160a01b0380841660009081526020818152604080832061ffff7f0000000000000000000000000000000000000000000000000000000000000000168452909152812054909116806106e6576040516357bd46e760e11b815260040160405180910390fd5b6000816001600160a01b03166318160ddd6040518163ffffffff1660e01b8152600401602060405180830381865afa158015610726573d6000803e3d6000fd5b505050506040513d601f19601f8201168201806040525081019061074a919061127b565b6040516323b872dd60e01b8152336004820152306024820152604481018790529091506001600160a01b038316906323b872dd906064016020604051808303816000875af11580156107a0573d6000803e3d6000fd5b505050506040513d601f19601f820116820180604052508101906107c491906112b1565b506040516370a0823160e01b815230600482018190526000916001600160a01b03851691639dc29fac9183906370a0823190602401602060405180830381865afa158015610816573d6000803e3d6000fd5b505050506040513d601f19601f8201168201806040525081019061083a919061127b565b6040516001600160e01b031960e085901b1681526001600160a01b03909216600483015260248201526044016020604051808303816000875af1158015610885573d6000803e3d6000fd5b505050506040513d601f19601f820116820180604052508101906108a9919061127b565b6040516001600160a01b03871660248201526044810182905290915060009060640160408051601f198184030181529181526020820180516001600160e01b031663a9059cbb60e01b179052516370a0823160e01b81523060048201529091506000906001600160a01b038a16906370a0823190602401602060405180830381865afa15801561093d573d6000803e3d6000fd5b505050506040513d601f19601f82011682018060405250810190610961919061127b565b905060006109728382808d81610aea565b5090508061099357604051637610b93d60e11b815260040160405180910390fd5b856001600160a01b03166318160ddd6040518163ffffffff1660e01b8152600401602060405180830381865afa1580156109d1573d6000803e3d6000fd5b505050506040513d601f19601f820116820180604052508101906109f5919061127b565b6109ff90866112d3565b6040516370a0823160e01b81523060048201526001600160a01b038c16906370a0823190602401602060405180830381865afa158015610a43573d6000803e3d6000fd5b505050506040513d601f19601f82011682018060405250810190610a67919061127b565b610a7190846112d3565b1115610adc576040516327e1c06960e01b815260206004820152603360248201527f746f6b656e20616d6f756e742073656e742067726561746572207468656e20626044820152721d5c9b995908121d1bdad95b88185b5bdd5b9d606a1b606482015260840161023c565b509198975050505050505050565b600060608415610afa5784610aff565b5a9450845b50600080885160208a0186888af191503d86811115610b1c575060005b808252806000602084013e509550959350505050565b606080826001600160a01b03166306fdde036040518163ffffffff1660e01b8152600401600060405180830381865afa158015610b73573d6000803e3d6000fd5b505050506040513d6000823e601f3d908101601f19168201604052610b9b9190810190611318565b604051602001610bab9190611386565b6040516020818303038152906040529150826001600160a01b03166395d89b416040518163ffffffff1660e01b8152600401600060405180830381865afa158015610bfa573d6000803e3d6000fd5b505050506040513d6000823e601f3d908101601f19168201604052610c229190810190611318565b604051602001610c3291906113b3565b6040516020818303038152906040529050915091565b60008060007f000000000000000000000000000000000000000000000000000000000000000060601b9050604051733d602d80600a3d3981f3363d3d373d3d3d363d7360601b81528160148201526e5af43d82803e903d91602b57fd5bf360881b60288201526037816000f09250506001600160a01b038216610cde57604051636770d3c960e11b815260040160405180910390fd5b60405163e2da50af60e01b81526001600160a01b0383169063e2da50af90610d36907f0000000000000000000000000000000000000000000000000000000000000000908c9030908d908d908d908d90600401611408565b600060405180830381600087803b158015610d5057600080fd5b505af1158015610d64573d6000803e3d6000fd5b50505050816001600160a01b031663952888836040518163ffffffff1660e01b8152600401602060405180830381865afa158015610da6573d6000803e3d6000fd5b505050506040513d601f19601f82011682018060405250810190610dca9190611294565b60ff16600114610ded57604051631cb28b2360e11b815260040160405180910390fd5b60405162b3c45160e01b81526001600160a01b03838116600483015261ffff8916602483015289811660448301527f0000000000000000000000000000000000000000000000000000000000000000169062b3c45190606401600060405180830381600087803b158015610e6057600080fd5b505af1158015610e74573d6000803e3d6000fd5b505050506001600160a01b0397881660008181526020818152604080832061ffff9b8c1680855290835281842080546001600160a01b031916888f1690811790915582518084018452958652858401918252845260019092529091209151825491519a166001600160b01b031990911617600160a01b9990981698909802969096179096555093949350505050565b81836001600160a01b03166318160ddd6040518163ffffffff1660e01b8152600401602060405180830381865afa158015610f42573d6000803e3d6000fd5b505050506040513d601f19601f82011682018060405250810190610f66919061127b565b610f7091906112d3565b6040516370a0823160e01b815230600482015282906001600160a01b038716906370a0823190602401602060405180830381865afa158015610fb6573d6000803e3d6000fd5b505050506040513d601f19601f82011682018060405250810190610fda919061127b565b610fe491906112d3565b1015611045576040516327e1c06960e01b815260206004820152602960248201527f746f74616c20737570706c792067726561746572207468656e20777261707065604482015268722062616c616e636560b81b606482015260840161023c565b50505050565b80356001600160a01b038116811461106257600080fd5b919050565b60008060006060848603121561107c57600080fd5b6110858461104b565b92506020840135915061109a6040850161104b565b90509250925092565b803561ffff8116811461106257600080fd5b634e487b7160e01b600052604160045260246000fd5b604051601f8201601f1916810167ffffffffffffffff811182821017156110f4576110f46110b5565b604052919050565b600067ffffffffffffffff821115611116576111166110b5565b50601f01601f191660200190565b600082601f83011261113557600080fd5b8135611148611143826110fc565b6110cb565b81815284602083860101111561115d57600080fd5b816020850160208301376000918101602001919091529392505050565b60ff8116811461118957600080fd5b50565b600080600080600060a086880312156111a457600080fd5b6111ad8661104b565b94506111bb602087016110a3565b9350604086013567ffffffffffffffff808211156111d857600080fd5b6111e489838a01611124565b945060608801359150808211156111fa57600080fd5b5061120788828901611124565b92505060808601356112188161117a565b809150509295509295909350565b6000806040838503121561123957600080fd5b6112428361104b565b9150611250602084016110a3565b90509250929050565b60006020828403121561126b57600080fd5b6112748261104b565b9392505050565b60006020828403121561128d57600080fd5b5051919050565b6000602082840312156112a657600080fd5b81516112748161117a565b6000602082840312156112c357600080fd5b8151801515811461127457600080fd5b8181038181111561067857634e487b7160e01b600052601160045260246000fd5b60005b8381101561130f5781810151838201526020016112f7565b50506000910152565b60006020828403121561132a57600080fd5b815167ffffffffffffffff81111561134157600080fd5b8201601f8101841361135257600080fd5b8051611360611143826110fc565b81815285602083850101111561137557600080fd5b6106468260208301602086016112f4565b6402430bbb5960dd1b8152600082516113a68160058501602087016112f4565b9190910160050192915050565b600d60fb1b8152600082516113cf8160018501602087016112f4565b9190910160010192915050565b600081518084526113f48160208601602086016112f4565b601f01601f19169290920160200192915050565b6001600160a01b03888116825287811660208301528616604082015261ffff8516606082015260e060808201819052600090611446908301866113dc565b82810360a084015261145881866113dc565b91505060ff831660c08301529897505050505050505056fea264697066735822122058a8879936d77c8f9d1cb06ca2b746ca56602c9eb0df60b99d139fbe0353e0bb64736f6c63430008150033",
    "linkReferences": {}
  },
  "methodIdentifiers": {
    "HtokenImplementation()": "d2ca0e2c",
    "clone(address,uint16,string,string,uint8)": "66517ff5",
    "delivery()": "3d5a70c2",
    "getHtoken(address,uint16)": "73bfbc99",
    "getHtokenInfo(address)": "7bda9f37",
    "unwrap(address,uint256,address)": "b68f4345",
    "wrap(address,uint256,address)": "5c15155e"
  },
  "id": 33
}