{
  "abi": [
    {
      "inputs": [
        {
          "internalType": "uint16",
          "name": "_chainId",
          "type": "uint16"
        }
      ],
      "stateMutability": "nonpayable",
      "type": "constructor"
    },
    {
      "anonymous": false,
      "inputs": [
        {
          "indexed": false,
          "internalType": "uint16",
          "name": "srcChainId",
          "type": "uint16"
        },
        {
          "indexed": false,
          "internalType": "bytes",
          "name": "srcAddress",
          "type": "bytes"
        },
        {
          "indexed": false,
          "internalType": "uint64",
          "name": "nonce",
          "type": "uint64"
        },
        {
          "indexed": false,
          "internalType": "address",
          "name": "dstAddress",
          "type": "address"
        }
      ],
      "name": "PayloadCleared",
      "type": "event"
    },
    {
      "anonymous": false,
      "inputs": [
        {
          "indexed": false,
          "internalType": "uint16",
          "name": "srcChainId",
          "type": "uint16"
        },
        {
          "indexed": false,
          "internalType": "bytes",
          "name": "srcAddress",
          "type": "bytes"
        },
        {
          "indexed": false,
          "internalType": "address",
          "name": "dstAddress",
          "type": "address"
        },
        {
          "indexed": false,
          "internalType": "uint64",
          "name": "nonce",
          "type": "uint64"
        },
        {
          "indexed": false,
          "internalType": "bytes",
          "name": "payload",
          "type": "bytes"
        },
        {
          "indexed": false,
          "internalType": "bytes",
          "name": "reason",
          "type": "bytes"
        }
      ],
      "name": "PayloadStored",
      "type": "event"
    },
    {
      "anonymous": false,
      "inputs": [
        {
          "indexed": false,
          "internalType": "uint16",
          "name": "chainId",
          "type": "uint16"
        },
        {
          "indexed": false,
          "internalType": "bytes",
          "name": "srcAddress",
          "type": "bytes"
        }
      ],
      "name": "UaForceResumeReceive",
      "type": "event"
    },
    {
      "anonymous": false,
      "inputs": [
        {
          "indexed": true,
          "internalType": "address",
          "name": "to",
          "type": "address"
        },
        {
          "indexed": true,
          "internalType": "uint256",
          "name": "quantity",
          "type": "uint256"
        }
      ],
      "name": "ValueTransferFailed",
      "type": "event"
    },
    {
      "inputs": [],
      "name": "blockNextMsg",
      "outputs": [],
      "stateMutability": "nonpayable",
      "type": "function"
    },
    {
      "inputs": [],
      "name": "defaultAdapterParams",
      "outputs": [
        {
          "internalType": "bytes",
          "name": "",
          "type": "bytes"
        }
      ],
      "stateMutability": "view",
      "type": "function"
    },
    {
      "inputs": [
        {
          "internalType": "uint16",
          "name": "_dstChainId",
          "type": "uint16"
        },
        {
          "internalType": "address",
          "name": "_userApplication",
          "type": "address"
        },
        {
          "internalType": "bytes",
          "name": "_payload",
          "type": "bytes"
        },
        {
          "internalType": "bool",
          "name": "_payInZRO",
          "type": "bool"
        },
        {
          "internalType": "bytes",
          "name": "_adapterParams",
          "type": "bytes"
        }
      ],
      "name": "estimateFees",
      "outputs": [
        {
          "internalType": "uint256",
          "name": "nativeFee",
          "type": "uint256"
        },
        {
          "internalType": "uint256",
          "name": "zroFee",
          "type": "uint256"
        }
      ],
      "stateMutability": "view",
      "type": "function"
    },
    {
      "inputs": [
        {
          "internalType": "uint16",
          "name": "_srcChainId",
          "type": "uint16"
        },
        {
          "internalType": "bytes",
          "name": "_path",
          "type": "bytes"
        }
      ],
      "name": "forceResumeReceive",
      "outputs": [],
      "stateMutability": "nonpayable",
      "type": "function"
    },
    {
      "inputs": [],
      "name": "getChainId",
      "outputs": [
        {
          "internalType": "uint16",
          "name": "",
          "type": "uint16"
        }
      ],
      "stateMutability": "view",
      "type": "function"
    },
    {
      "inputs": [
        {
          "internalType": "uint16",
          "name": "",
          "type": "uint16"
        },
        {
          "internalType": "uint16",
          "name": "",
          "type": "uint16"
        },
        {
          "internalType": "address",
          "name": "",
          "type": "address"
        },
        {
          "internalType": "uint256",
          "name": "",
          "type": "uint256"
        }
      ],
      "name": "getConfig",
      "outputs": [
        {
          "internalType": "bytes",
          "name": "",
          "type": "bytes"
        }
      ],
      "stateMutability": "pure",
      "type": "function"
    },
    {
      "inputs": [
        {
          "internalType": "uint16",
          "name": "_chainID",
          "type": "uint16"
        },
        {
          "internalType": "bytes",
          "name": "_path",
          "type": "bytes"
        }
      ],
      "name": "getInboundNonce",
      "outputs": [
        {
          "internalType": "uint64",
          "name": "",
          "type": "uint64"
        }
      ],
      "stateMutability": "view",
      "type": "function"
    },
    {
      "inputs": [
        {
          "internalType": "uint16",
          "name": "_srcChainId",
          "type": "uint16"
        },
        {
          "internalType": "bytes",
          "name": "_srcAddress",
          "type": "bytes"
        }
      ],
      "name": "getLengthOfQueue",
      "outputs": [
        {
          "internalType": "uint256",
          "name": "",
          "type": "uint256"
        }
      ],
      "stateMutability": "view",
      "type": "function"
    },
    {
      "inputs": [
        {
          "internalType": "uint16",
          "name": "_chainID",
          "type": "uint16"
        },
        {
          "internalType": "address",
          "name": "_srcAddress",
          "type": "address"
        }
      ],
      "name": "getOutboundNonce",
      "outputs": [
        {
          "internalType": "uint64",
          "name": "",
          "type": "uint64"
        }
      ],
      "stateMutability": "view",
      "type": "function"
    },
    {
      "inputs": [
        {
          "internalType": "address",
          "name": "",
          "type": "address"
        }
      ],
      "name": "getReceiveLibraryAddress",
      "outputs": [
        {
          "internalType": "address",
          "name": "",
          "type": "address"
        }
      ],
      "stateMutability": "view",
      "type": "function"
    },
    {
      "inputs": [
        {
          "internalType": "address",
          "name": "",
          "type": "address"
        }
      ],
      "name": "getReceiveVersion",
      "outputs": [
        {
          "internalType": "uint16",
          "name": "",
          "type": "uint16"
        }
      ],
      "stateMutability": "pure",
      "type": "function"
    },
    {
      "inputs": [
        {
          "internalType": "address",
          "name": "",
          "type": "address"
        }
      ],
      "name": "getSendLibraryAddress",
      "outputs": [
        {
          "internalType": "address",
          "name": "",
          "type": "address"
        }
      ],
      "stateMutability": "view",
      "type": "function"
    },
    {
      "inputs": [
        {
          "internalType": "address",
          "name": "",
          "type": "address"
        }
      ],
      "name": "getSendVersion",
      "outputs": [
        {
          "internalType": "uint16",
          "name": "",
          "type": "uint16"
        }
      ],
      "stateMutability": "pure",
      "type": "function"
    },
    {
      "inputs": [
        {
          "internalType": "uint16",
          "name": "_srcChainId",
          "type": "uint16"
        },
        {
          "internalType": "bytes",
          "name": "_path",
          "type": "bytes"
        }
      ],
      "name": "hasStoredPayload",
      "outputs": [
        {
          "internalType": "bool",
          "name": "",
          "type": "bool"
        }
      ],
      "stateMutability": "view",
      "type": "function"
    },
    {
      "inputs": [
        {
          "internalType": "uint16",
          "name": "",
          "type": "uint16"
        },
        {
          "internalType": "bytes",
          "name": "",
          "type": "bytes"
        }
      ],
      "name": "inboundNonce",
      "outputs": [
        {
          "internalType": "uint64",
          "name": "",
          "type": "uint64"
        }
      ],
      "stateMutability": "view",
      "type": "function"
    },
    {
      "inputs": [],
      "name": "isReceivingPayload",
      "outputs": [
        {
          "internalType": "bool",
          "name": "",
          "type": "bool"
        }
      ],
      "stateMutability": "view",
      "type": "function"
    },
    {
      "inputs": [],
      "name": "isSendingPayload",
      "outputs": [
        {
          "internalType": "bool",
          "name": "",
          "type": "bool"
        }
      ],
      "stateMutability": "view",
      "type": "function"
    },
    {
      "inputs": [
        {
          "internalType": "address",
          "name": "",
          "type": "address"
        }
      ],
      "name": "lzEndpointLookup",
      "outputs": [
        {
          "internalType": "address",
          "name": "",
          "type": "address"
        }
      ],
      "stateMutability": "view",
      "type": "function"
    },
    {
      "inputs": [],
      "name": "mockChainId",
      "outputs": [
        {
          "internalType": "uint16",
          "name": "",
          "type": "uint16"
        }
      ],
      "stateMutability": "view",
      "type": "function"
    },
    {
      "inputs": [
        {
          "internalType": "uint16",
          "name": "",
          "type": "uint16"
        },
        {
          "internalType": "bytes",
          "name": "",
          "type": "bytes"
        },
        {
          "internalType": "uint256",
          "name": "",
          "type": "uint256"
        }
      ],
      "name": "msgsToDeliver",
      "outputs": [
        {
          "internalType": "address",
          "name": "dstAddress",
          "type": "address"
        },
        {
          "internalType": "uint64",
          "name": "nonce",
          "type": "uint64"
        },
        {
          "internalType": "bytes",
          "name": "payload",
          "type": "bytes"
        }
      ],
      "stateMutability": "view",
      "type": "function"
    },
    {
      "inputs": [],
      "name": "nextMsgBlocked",
      "outputs": [
        {
          "internalType": "bool",
          "name": "",
          "type": "bool"
        }
      ],
      "stateMutability": "view",
      "type": "function"
    },
    {
      "inputs": [],
      "name": "oracleFee",
      "outputs": [
        {
          "internalType": "uint256",
          "name": "",
          "type": "uint256"
        }
      ],
      "stateMutability": "view",
      "type": "function"
    },
    {
      "inputs": [
        {
          "internalType": "uint16",
          "name": "",
          "type": "uint16"
        },
        {
          "internalType": "address",
          "name": "",
          "type": "address"
        }
      ],
      "name": "outboundNonce",
      "outputs": [
        {
          "internalType": "uint64",
          "name": "",
          "type": "uint64"
        }
      ],
      "stateMutability": "view",
      "type": "function"
    },
    {
      "inputs": [],
      "name": "protocolFeeConfig",
      "outputs": [
        {
          "internalType": "uint256",
          "name": "zroFee",
          "type": "uint256"
        },
        {
          "internalType": "uint256",
          "name": "nativeBP",
          "type": "uint256"
        }
      ],
      "stateMutability": "view",
      "type": "function"
    },
    {
      "inputs": [
        {
          "internalType": "uint16",
          "name": "_srcChainId",
          "type": "uint16"
        },
        {
          "internalType": "bytes",
          "name": "_path",
          "type": "bytes"
        },
        {
          "internalType": "address",
          "name": "_dstAddress",
          "type": "address"
        },
        {
          "internalType": "uint64",
          "name": "_nonce",
          "type": "uint64"
        },
        {
          "internalType": "uint256",
          "name": "_gasLimit",
          "type": "uint256"
        },
        {
          "internalType": "bytes",
          "name": "_payload",
          "type": "bytes"
        }
      ],
      "name": "receivePayload",
      "outputs": [],
      "stateMutability": "nonpayable",
      "type": "function"
    },
    {
      "inputs": [],
      "name": "relayerFeeConfig",
      "outputs": [
        {
          "internalType": "uint128",
          "name": "dstPriceRatio",
          "type": "uint128"
        },
        {
          "internalType": "uint128",
          "name": "dstGasPriceInWei",
          "type": "uint128"
        },
        {
          "internalType": "uint128",
          "name": "dstNativeAmtCap",
          "type": "uint128"
        },
        {
          "internalType": "uint64",
          "name": "baseGas",
          "type": "uint64"
        },
        {
          "internalType": "uint64",
          "name": "gasPerByte",
          "type": "uint64"
        }
      ],
      "stateMutability": "view",
      "type": "function"
    },
    {
      "inputs": [
        {
          "internalType": "uint16",
          "name": "_srcChainId",
          "type": "uint16"
        },
        {
          "internalType": "bytes",
          "name": "_path",
          "type": "bytes"
        },
        {
          "internalType": "bytes",
          "name": "_payload",
          "type": "bytes"
        }
      ],
      "name": "retryPayload",
      "outputs": [],
      "stateMutability": "nonpayable",
      "type": "function"
    },
    {
      "inputs": [
        {
          "internalType": "uint16",
          "name": "_chainId",
          "type": "uint16"
        },
        {
          "internalType": "bytes",
          "name": "_path",
          "type": "bytes"
        },
        {
          "internalType": "bytes",
          "name": "_payload",
          "type": "bytes"
        },
        {
          "internalType": "address payable",
          "name": "_refundAddress",
          "type": "address"
        },
        {
          "internalType": "address",
          "name": "_zroPaymentAddress",
          "type": "address"
        },
        {
          "internalType": "bytes",
          "name": "_adapterParams",
          "type": "bytes"
        }
      ],
      "name": "send",
      "outputs": [],
      "stateMutability": "payable",
      "type": "function"
    },
    {
      "inputs": [
        {
          "internalType": "uint16",
          "name": "",
          "type": "uint16"
        },
        {
          "internalType": "uint16",
          "name": "",
          "type": "uint16"
        },
        {
          "internalType": "uint256",
          "name": "",
          "type": "uint256"
        },
        {
          "internalType": "bytes",
          "name": "",
          "type": "bytes"
        }
      ],
      "name": "setConfig",
      "outputs": [],
      "stateMutability": "nonpayable",
      "type": "function"
    },
    {
      "inputs": [
        {
          "internalType": "bytes",
          "name": "_adapterParams",
          "type": "bytes"
        }
      ],
      "name": "setDefaultAdapterParams",
      "outputs": [],
      "stateMutability": "nonpayable",
      "type": "function"
    },
    {
      "inputs": [
        {
          "internalType": "address",
          "name": "destAddr",
          "type": "address"
        },
        {
          "internalType": "address",
          "name": "lzEndpointAddr",
          "type": "address"
        }
      ],
      "name": "setDestLzEndpoint",
      "outputs": [],
      "stateMutability": "nonpayable",
      "type": "function"
    },
    {
      "inputs": [
        {
          "internalType": "uint256",
          "name": "_oracleFee",
          "type": "uint256"
        }
      ],
      "name": "setOracleFee",
      "outputs": [],
      "stateMutability": "nonpayable",
      "type": "function"
    },
    {
      "inputs": [
        {
          "internalType": "uint256",
          "name": "_zroFee",
          "type": "uint256"
        },
        {
          "internalType": "uint256",
          "name": "_nativeBP",
          "type": "uint256"
        }
      ],
      "name": "setProtocolFee",
      "outputs": [],
      "stateMutability": "nonpayable",
      "type": "function"
    },
    {
      "inputs": [
        {
          "internalType": "uint16",
          "name": "",
          "type": "uint16"
        }
      ],
      "name": "setReceiveVersion",
      "outputs": [],
      "stateMutability": "nonpayable",
      "type": "function"
    },
    {
      "inputs": [
        {
          "internalType": "uint128",
          "name": "_dstPriceRatio",
          "type": "uint128"
        },
        {
          "internalType": "uint128",
          "name": "_dstGasPriceInWei",
          "type": "uint128"
        },
        {
          "internalType": "uint128",
          "name": "_dstNativeAmtCap",
          "type": "uint128"
        },
        {
          "internalType": "uint64",
          "name": "_baseGas",
          "type": "uint64"
        },
        {
          "internalType": "uint64",
          "name": "_gasPerByte",
          "type": "uint64"
        }
      ],
      "name": "setRelayerPrice",
      "outputs": [],
      "stateMutability": "nonpayable",
      "type": "function"
    },
    {
      "inputs": [
        {
          "internalType": "uint16",
          "name": "",
          "type": "uint16"
        }
      ],
      "name": "setSendVersion",
      "outputs": [],
      "stateMutability": "nonpayable",
      "type": "function"
    },
    {
      "inputs": [
        {
          "internalType": "uint16",
          "name": "",
          "type": "uint16"
        },
        {
          "internalType": "bytes",
          "name": "",
          "type": "bytes"
        }
      ],
      "name": "storedPayload",
      "outputs": [
        {
          "internalType": "uint64",
          "name": "payloadLength",
          "type": "uint64"
        },
        {
          "internalType": "address",
          "name": "dstAddress",
          "type": "address"
        },
        {
          "internalType": "bytes32",
          "name": "payloadHash",
          "type": "bytes32"
        }
      ],
      "stateMutability": "view",
      "type": "function"
    }
  ],
  "bytecode": {
    "object": "0x6080604052600c805461ffff19166101011790553480156200002057600080fd5b50604051620031af380380620031af83398101604081905262000043916200013d565b6001805461ffff191661ffff83161781556040805160a0810182526402540be400808252602080830191909152678ac7230489e8000082840152606460608301526080909101929092527402540be400000000000000000000000002540be4006002557801000000000000006400000000000000008ac7230489e800006003558051808201909152670de0b6b3a76400008082526103e891909201819052600491909155600555662386f26fc100006006556200012662030d4060408051600160f01b602082015260228082019390935281518082039093018352604201905290565b6007906200013590826200020f565b5050620002db565b6000602082840312156200015057600080fd5b815161ffff811681146200016357600080fd5b9392505050565b634e487b7160e01b600052604160045260246000fd5b600181811c908216806200019557607f821691505b602082108103620001b657634e487b7160e01b600052602260045260246000fd5b50919050565b601f8211156200020a57600081815260208120601f850160051c81016020861015620001e55750805b601f850160051c820191505b818110156200020657828155600101620001f1565b5050505b505050565b81516001600160401b038111156200022b576200022b6200016a565b62000243816200023c845462000180565b84620001bc565b602080601f8311600181146200027b5760008415620002625750858301515b600019600386901b1c1916600185901b17855562000206565b600085815260208120601f198616915b82811015620002ac578886015182559484019460019091019084016200028b565b5085821015620002cb5787850151600019600388901b60f8161c191681555b5050505050600190811b01905550565b612ec480620002eb6000396000f3fe60806040526004361061021a5760003560e01c80639924d33b11610123578063ca066b35116100ab578063e97a448a1161006f578063e97a448a1461080a578063f5ecbdbc14610826578063f9cd3ceb14610858578063fbba623b1461086e578063fdc07c701461088e57600080fd5b8063ca066b351461078a578063cbed8b9c146107ab578063d23104f1146107cc578063da1a7c9a14610274578063db14f305146107ef57600080fd5b8063b6d9ef60116100f2578063b6d9ef60146106b8578063c08f15a1146106d8578063c2fa481314610721578063c580310014610741578063c81b383a1461075457600080fd5b80639924d33b146106055780639c729da11461043e578063aaff5f1614610657578063b20864991461067757600080fd5b80633408e470116101a657806371ba2fd61161017557806371ba2fd61461043e57806376a386dc146104765780637a1457481461050f5780637f6df8e614610547578063907c5e7e1461057557600080fd5b80633408e470146103c55780633e0dd83e146103de57806340a7bb10146103fe57806342d65a8d1461041e57600080fd5b806310ddb137116101ed57806310ddb1371461025457806312a9ee6b146102d8578063240de27714610307578063272bd3841461032d5780632c365e251461034f57600080fd5b806307d3277f1461021f57806307e0db1714610254578063096568f6146102745780630eaf6ea6146102a8575b600080fd5b34801561022b57600080fd5b5060045460055461023a919082565b604080519283526020830191909152015b60405180910390f35b34801561026057600080fd5b5061027261026f3660046121cb565b50565b005b34801561028057600080fd5b5061029561028f3660046121fb565b50600190565b60405161ffff909116815260200161024b565b3480156102b457600080fd5b506102c86102c3366004612260565b6108ae565b604051901515815260200161024b565b3480156102e457600080fd5b506102f86102f3366004612354565b6108f4565b60405161024b939291906123f0565b34801561031357600080fd5b5061027261032236600461242c565b600491909155600555565b34801561033957600080fd5b506103426109f1565b60405161024b919061244e565b34801561035b57600080fd5b5061027261036a36600461248f565b6001600160801b03948516600160801b94861685021760025560038054939095166001600160c01b0319909316929092176001600160401b03918216909302929092176001600160c01b0316600160c01b9190921602179055565b3480156103d157600080fd5b5060015461ffff16610295565b3480156103ea57600080fd5b506001546102c89062010000900460ff1681565b34801561040a57600080fd5b5061023a6104193660046124f4565b610a7f565b34801561042a57600080fd5b50610272610439366004612260565b610b7e565b34801561044a57600080fd5b5061045e6104593660046121fb565b503090565b6040516001600160a01b03909116815260200161024b565b34801561048257600080fd5b506104e2610491366004612594565b600a6020908152600092835260409092208151808301840180519281529084019290930191909120915280546001909101546001600160401b03821691600160401b90046001600160a01b03169083565b604080516001600160401b0390941684526001600160a01b0390921660208401529082015260600161024b565b34801561051b57600080fd5b5061052f61052a3660046125e1565b610cc5565b6040516001600160401b03909116815260200161024b565b34801561055357600080fd5b50610567610562366004612260565b610cfd565b60405190815260200161024b565b34801561058157600080fd5b506002546003546105c1916001600160801b0380821692600160801b92839004821692918116916001600160401b03908204811691600160c01b90041685565b604080516001600160801b039687168152948616602086015292909416918301919091526001600160401b039081166060830152909116608082015260a00161024b565b34801561061157600080fd5b5061052f610620366004612594565b600860209081526000928352604090922081518083018401805192815290840192909301919091209152546001600160401b031681565b34801561066357600080fd5b50610272610672366004612618565b610d39565b34801561068357600080fd5b5061052f6106923660046125e1565b60096020908152600092835260408084209091529082529020546001600160401b031681565b3480156106c457600080fd5b506102726106d3366004612698565b600655565b3480156106e457600080fd5b506102726106f33660046126b1565b6001600160a01b03918216600090815260208190526040902080546001600160a01b03191691909216179055565b34801561072d57600080fd5b5061027261073c3660046126cf565b610f4f565b61027261074f36600461277e565b61168a565b34801561076057600080fd5b5061045e61076f3660046121fb565b6000602081905290815260409020546001600160a01b031681565b34801561079657600080fd5b506102c8600c54610100900460ff1660021490565b3480156107b757600080fd5b506102726107c6366004612845565b50505050565b3480156107d857600080fd5b506102726001805462ff0000191662010000179055565b3480156107fb57600080fd5b506001546102959061ffff1681565b34801561081657600080fd5b506102c8600c5460ff1660021490565b34801561083257600080fd5b506103426108413660046128ac565b604080516020810190915260008152949350505050565b34801561086457600080fd5b5061056760065481565b34801561087a57600080fd5b506102726108893660046128f9565b611c25565b34801561089a57600080fd5b5061052f6108a9366004612260565b611c35565b61ffff83166000908152600a602052604080822090518291906108d49086908690612935565b9081526040519081900360200190206001015415159150505b9392505050565b600b602090815260008481526040902083518085018301805192815290830192850192909220915280548290811061092b57600080fd5b6000918252602090912060029091020180546001820180546001600160a01b0383169650600160a01b9092046001600160401b0316945091925061096e90612945565b80601f016020809104026020016040519081016040528092919081815260200182805461099a90612945565b80156109e75780601f106109bc576101008083540402835291602001916109e7565b820191906000526020600020905b8154815290600101906020018083116109ca57829003601f168201915b5050505050905083565b600780546109fe90612945565b80601f0160208091040260200160405190810160405280929190818152602001828054610a2a90612945565b8015610a775780601f10610a4c57610100808354040283529160200191610a77565b820191906000526020600020905b815481529060010190602001808311610a5a57829003601f168201915b505050505081565b600080600080845111610b1c5760078054610a9990612945565b80601f0160208091040260200160405190810160405280929190818152602001828054610ac590612945565b8015610b125780601f10610ae757610100808354040283529160200191610b12565b820191906000526020600020905b815481529060010190602001808311610af557829003601f168201915b5050505050610b1e565b835b90506000610b318960018a8a5186611c7a565b90506000610b428783600654611e13565b905086610b525780945084610b57565b809350835b50600654610b658387612995565b610b6f9190612995565b94505050509550959350505050565b61ffff83166000908152600a60205260408082209051610ba19085908590612935565b9081526040519081900360200190206001810154909150610c095760405162461bcd60e51b815260206004820181905260248201527f4c617965725a65726f4d6f636b3a206e6f2073746f726564207061796c6f616460448201526064015b60405180910390fd5b8054600160401b90046001600160a01b03163314610c695760405162461bcd60e51b815260206004820152601d60248201527f4c617965725a65726f4d6f636b3a20696e76616c69642063616c6c65720000006044820152606401610c00565b80546001600160e01b0319168155600060018201556040517f23d2684f396e92a6e2ff2d16f98e6fea00d50cb27a64b531bc0748f730211f9890610cb2908690869086906129d1565b60405180910390a16107c6848484611e50565b61ffff821660009081526009602090815260408083206001600160a01b03851684529091529020546001600160401b03165b92915050565b61ffff83166000908152600b60205260408082209051610d209085908590612935565b9081526040519081900360200190205490509392505050565b61ffff85166000908152600a60205260408082209051610d5c9087908790612935565b9081526040519081900360200190206001810154909150610dbf5760405162461bcd60e51b815260206004820181905260248201527f4c617965725a65726f4d6f636b3a206e6f2073746f726564207061796c6f61646044820152606401610c00565b80546001600160401b031682148015610df2575080600101548383604051610de8929190612935565b6040518091039020145b610e3e5760405162461bcd60e51b815260206004820152601e60248201527f4c617965725a65726f4d6f636b3a20696e76616c6964207061796c6f616400006044820152606401610c00565b80546001600160e01b03198116825560006001830181905561ffff88168152600860205260408082209051600160401b9093046001600160a01b031692610e889089908990612935565b90815260405190819003602001812054621d356760e01b82526001600160401b031691506001600160a01b03831690621d356790610ed4908b908b908b9087908c908c906004016129ef565b600060405180830381600087803b158015610eee57600080fd5b505af1158015610f02573d6000803e3d6000fd5b505050507f612434f39581c8e7d99746c9c20c6eb0ce8c0eb99f007c5719d620841370957d8888888486604051610f3d959493929190612a3c565b60405180910390a15050505050505050565b600c54610100900460ff16600114610fb55760405162461bcd60e51b8152602060048201526024808201527f4c617965725a65726f4d6f636b3a206e6f2072656365697665207265656e7472604482015263616e637960e01b6064820152608401610c00565b600c805461ff00191661020017905561ffff88166000908152600a60205260408082209051610fe7908a908a90612935565b90815260200160405180910390209050600860008a61ffff1661ffff1681526020019081526020016000208888604051611022929190612935565b9081526040519081900360200190208054600090611048906001600160401b0316612a85565b91906101000a8154816001600160401b0302191690836001600160401b0316021790556001600160401b0316856001600160401b0316146110cb5760405162461bcd60e51b815260206004820152601a60248201527f4c617965725a65726f4d6f636b3a2077726f6e67206e6f6e63650000000000006044820152606401610c00565b60018101541561139d5761ffff89166000908152600b602052604080822090516110f8908b908b90612935565b9081526020016040518091039020905060006040518060600160405280896001600160a01b03168152602001886001600160401b0316815260200186868080601f016020809104026020016040519081016040528093929190818152602001838380828437600092019190915250505091525082549091501561132e57815460018181018455600084815260209081902084516002909402018054918501516001600160401b0316600160a01b026001600160e01b03199092166001600160a01b039094169390931717825560408301518392918201906111d99082612afa565b50505060005b82546111ed90600190612bb9565b8110156112b35782818154811061120657611206612bcc565b9060005260206000209060020201838260016112229190612995565b8154811061123257611232612bcc565b60009182526020909120825460029092020180546001600160a01b039092166001600160a01b031983168117825583546001600160e01b031990931617600160a01b928390046001600160401b031690920291909117815560018082019061129c90840182612be2565b5090505080806112ab90612cbc565b9150506111df565b5080826000815481106112c8576112c8612bcc565b600091825260209182902083516002909202018054928401516001600160401b0316600160a01b026001600160e01b03199093166001600160a01b0390921691909117919091178155604082015160018201906113259082612afa565b50905050611396565b815460018181018455600084815260209081902084516002909402018054918501516001600160401b0316600160a01b026001600160e01b03199092166001600160a01b039094169390931717825560408301518392918201906113929082612afa565b5050505b5050611670565b60015462010000900460ff16156114cb576040518060600160405280848490506001600160401b03168152602001876001600160a01b0316815260200184846040516113ea929190612935565b604080519182900390912090915261ffff8b166000908152600a6020528190209051611419908b908b90612935565b90815260408051918290036020908101832084518154868401516001600160a01b0316600160401b026001600160e01b03199091166001600160401b03909216919091171781559382015160019094019390935591810182526000815290517f0f9e4d95b62f08222d612b5ab92039cd8fbbbea550a95e8df9f927436bbdf5db916114b2918c918c918c918c918c918b918b9190612cd5565b60405180910390a16001805462ff000019169055611670565b604051621d356760e01b81526001600160a01b03871690621d3567908690611501908d908d908d908c908b908b906004016129ef565b600060405180830381600088803b15801561151b57600080fd5b5087f19350505050801561152d575060015b611670573d80801561155b576040519150601f19603f3d011682016040523d82523d6000602084013e611560565b606091505b506040518060600160405280858590506001600160401b03168152602001886001600160a01b03168152602001858560405161159d929190612935565b604080519182900390912090915261ffff8c166000908152600a60205281902090516115cc908c908c90612935565b90815260408051918290036020908101832084518154928601516001600160a01b0316600160401b026001600160e01b03199093166001600160401b03909116179190911781559201516001909201919091557f0f9e4d95b62f08222d612b5ab92039cd8fbbbea550a95e8df9f927436bbdf5db9061165a908c908c908c908c908c908b908b908a90612cd5565b60405180910390a1506001805462ff0000191690555b5050600c805461ff00191661010017905550505050505050565b600c5460ff166001146116e95760405162461bcd60e51b815260206004820152602160248201527f4c617965725a65726f4d6f636b3a206e6f2073656e64207265656e7472616e636044820152607960f81b6064820152608401610c00565b600c805460ff19166002179055855160281461175c5760405162461bcd60e51b815260206004820152602c60248201527f4c617965725a65726f4d6f636b3a20696e636f72726563742072656d6f74652060448201526b616464726573732073697a6560a01b6064820152608401610c00565b60148601516001600160a01b0380821660009081526020819052604090205416806117ef5760405162461bcd60e51b815260206004820152603760248201527f4c617965725a65726f4d6f636b3a2064657374696e6174696f6e204c6179657260448201527f5a65726f20456e64706f696e74206e6f7420666f756e640000000000000000006064820152608401610c00565b600080845111611889576007805461180690612945565b80601f016020809104026020016040519081016040528092919081815260200182805461183290612945565b801561187f5780601f106118545761010080835404028352916020019161187f565b820191906000526020600020905b81548152906001019060200180831161186257829003601f168201915b505050505061188b565b835b905060006118dc8b338b8b8080601f0160208091040260200160405190810160405280939291908181526020018383808284376000920191909152505050506001600160a01b038a16151586610a7f565b509050803410156119415760405162461bcd60e51b815260206004820152602960248201527f4c617965725a65726f4d6f636b3a206e6f7420656e6f756768206e617469766560448201526820666f72206665657360b81b6064820152608401610c00565b61ffff8b166000908152600960209081526040808320338452909152812080548290611975906001600160401b0316612a85565b91906101000a8154816001600160401b0302191690836001600160401b0316021790559050600082346119a89190612bb9565b90508015611a55576000896001600160a01b03168260405160006040518083038185875af1925050503d80600081146119fd576040519150601f19603f3d011682016040523d82523d6000602084013e611a02565b606091505b5050905080611a535760405162461bcd60e51b815260206004820152601f60248201527f4c617965725a65726f4d6f636b3a206661696c656420746f20726566756e64006044820152606401610c00565b505b6000806000611a6387612047565b91955093509150508115611b05576000816001600160a01b03168360405160006040518083038185875af1925050503d8060008114611abe576040519150601f19603f3d011682016040523d82523d6000602084013e611ac3565b606091505b5050905080611b035760405183906001600160a01b038416907f2c7a964ca3de5ec1d42d9822f9bbd0eb142a59cc9f855e9d93813b773192c7a390600090a35b505b6040516bffffffffffffffffffffffff1933606090811b821660208401528b901b166034820152600090604801604051602081830303815290604052905060008f8f8080601f016020809104026020016040519081016040528093929190818152602001838380828437600081840152601f19601f820116905080830192505050505050509050896001600160a01b031663c2fa4813600160009054906101000a900461ffff16848e8b8a876040518763ffffffff1660e01b8152600401611bd296959493929190612d47565b600060405180830381600087803b158015611bec57600080fd5b505af1158015611c00573d6000803e3d6000fd5b5050600c805460ff191660011790555050505050505050505050505050505050505050565b6007611c318282612afa565b5050565b61ffff83166000908152600860205260408082209051611c589085908590612935565b908152604051908190036020019020546001600160401b031690509392505050565b600080600080611c8985612047565b5092509250925060008361ffff16600203611d15576003546001600160801b0316821115611d085760405162461bcd60e51b815260206004820152602660248201527f4c617965725a65726f4d6f636b3a206473744e6174697665416d7420746f6f2060448201526503630b933b2960d51b6064820152608401610c00565b611d128282612995565b90505b600354600090611d36908590600160801b90046001600160401b0316612995565b600254611d539190600160801b90046001600160801b0316612d9b565b9050611d5f8183612995565b6002549092506000906402540be40090611d82906001600160801b031685612d9b565b611d8c9190612dc8565b6002546003549192506000916402540be400916001600160801b0380821692611dcf92600160c01b9091046001600160401b031691600160801b90910416612ddc565b611dd99190612ddc565b611de39190612e07565b6001600160801b03169050611df8818b612d9b565b611e029083612995565b9d9c50505050505050505050505050565b60008315611e2457506004546108ed565b60055461271090611e358486612995565b611e3f9190612d9b565b611e499190612dc8565b90506108ed565b61ffff83166000908152600b60205260408082209051611e739085908590612935565b908152602001604051809103902090505b8054156107c65780546000908290611e9e90600190612bb9565b81548110611eae57611eae612bcc565b600091825260209182902060408051606081018252600290930290910180546001600160a01b03811684526001600160401b03600160a01b909104169383019390935260018301805492939291840191611f0790612945565b80601f0160208091040260200160405190810160405280929190818152602001828054611f3390612945565b8015611f805780601f10611f5557610100808354040283529160200191611f80565b820191906000526020600020905b815481529060010190602001808311611f6357829003601f168201915b505050505081525050905080600001516001600160a01b0316621d3567868686856020015186604001516040518663ffffffff1660e01b8152600401611fca959493929190612e2d565b600060405180830381600087803b158015611fe457600080fd5b505af1158015611ff8573d6000803e3d6000fd5b505050508180548061200c5761200c612e78565b60008281526020812060026000199093019283020180546001600160e01b03191681559061203d6001830182612166565b5050905550611e84565b60008060008084516022148061205e575060428551115b6120a25760405162461bcd60e51b8152602060048201526015602482015274496e76616c69642061646170746572506172616d7360581b6044820152606401610c00565b60028501519350602285015192508361ffff16600114806120c757508361ffff166002145b6121085760405162461bcd60e51b8152602060048201526012602482015271556e737570706f727465642074785479706560701b6044820152606401610c00565b600083116121465760405162461bcd60e51b815260206004820152600b60248201526a47617320746f6f206c6f7760a81b6044820152606401610c00565b8361ffff1660020361215f575050604283015160568401515b9193509193565b50805461217290612945565b6000825580601f10612182575050565b601f01602090049060005260206000209081019061026f91905b808211156121b0576000815560010161219c565b5090565b803561ffff811681146121c657600080fd5b919050565b6000602082840312156121dd57600080fd5b6108ed826121b4565b6001600160a01b038116811461026f57600080fd5b60006020828403121561220d57600080fd5b81356108ed816121e6565b60008083601f84011261222a57600080fd5b5081356001600160401b0381111561224157600080fd5b60208301915083602082850101111561225957600080fd5b9250929050565b60008060006040848603121561227557600080fd5b61227e846121b4565b925060208401356001600160401b0381111561229957600080fd5b6122a586828701612218565b9497909650939450505050565b634e487b7160e01b600052604160045260246000fd5b600082601f8301126122d957600080fd5b81356001600160401b03808211156122f3576122f36122b2565b604051601f8301601f19908116603f0116810190828211818310171561231b5761231b6122b2565b8160405283815286602085880101111561233457600080fd5b836020870160208301376000602085830101528094505050505092915050565b60008060006060848603121561236957600080fd5b612372846121b4565b925060208401356001600160401b0381111561238d57600080fd5b612399868287016122c8565b925050604084013590509250925092565b6000815180845260005b818110156123d0576020818501810151868301820152016123b4565b506000602082860101526020601f19601f83011685010191505092915050565b6001600160a01b03841681526001600160401b0383166020820152606060408201819052600090612423908301846123aa565b95945050505050565b6000806040838503121561243f57600080fd5b50508035926020909101359150565b6020815260006108ed60208301846123aa565b80356001600160801b03811681146121c657600080fd5b80356001600160401b03811681146121c657600080fd5b600080600080600060a086880312156124a757600080fd5b6124b086612461565b94506124be60208701612461565b93506124cc60408701612461565b92506124da60608701612478565b91506124e860808701612478565b90509295509295909350565b600080600080600060a0868803121561250c57600080fd5b612515866121b4565b94506020860135612525816121e6565b935060408601356001600160401b038082111561254157600080fd5b61254d89838a016122c8565b945060608801359150811515821461256457600080fd5b9092506080870135908082111561257a57600080fd5b50612587888289016122c8565b9150509295509295909350565b600080604083850312156125a757600080fd5b6125b0836121b4565b915060208301356001600160401b038111156125cb57600080fd5b6125d7858286016122c8565b9150509250929050565b600080604083850312156125f457600080fd5b6125fd836121b4565b9150602083013561260d816121e6565b809150509250929050565b60008060008060006060868803121561263057600080fd5b612639866121b4565b945060208601356001600160401b038082111561265557600080fd5b61266189838a01612218565b9096509450604088013591508082111561267a57600080fd5b5061268788828901612218565b969995985093965092949392505050565b6000602082840312156126aa57600080fd5b5035919050565b600080604083850312156126c457600080fd5b82356125fd816121e6565b60008060008060008060008060c0898b0312156126eb57600080fd5b6126f4896121b4565b975060208901356001600160401b038082111561271057600080fd5b61271c8c838d01612218565b909950975060408b01359150612731826121e6565b81965061274060608c01612478565b955060808b0135945060a08b013591508082111561275d57600080fd5b5061276a8b828c01612218565b999c989b5096995094979396929594505050565b600080600080600080600060c0888a03121561279957600080fd5b6127a2886121b4565b965060208801356001600160401b03808211156127be57600080fd5b6127ca8b838c016122c8565b975060408a01359150808211156127e057600080fd5b6127ec8b838c01612218565b909750955060608a01359150612801826121e6565b909350608089013590612813826121e6565b90925060a0890135908082111561282957600080fd5b506128368a828b016122c8565b91505092959891949750929550565b6000806000806080858703121561285b57600080fd5b612864856121b4565b9350612872602086016121b4565b92506040850135915060608501356001600160401b0381111561289457600080fd5b6128a0878288016122c8565b91505092959194509250565b600080600080608085870312156128c257600080fd5b6128cb856121b4565b93506128d9602086016121b4565b925060408501356128e9816121e6565b9396929550929360600135925050565b60006020828403121561290b57600080fd5b81356001600160401b0381111561292157600080fd5b61292d848285016122c8565b949350505050565b8183823760009101908152919050565b600181811c9082168061295957607f821691505b60208210810361297957634e487b7160e01b600052602260045260246000fd5b50919050565b634e487b7160e01b600052601160045260246000fd5b80820180821115610cf757610cf761297f565b81835281816020850137506000828201602090810191909152601f909101601f19169091010190565b61ffff841681526040602082015260006124236040830184866129a8565b61ffff87168152608060208201526000612a0d6080830187896129a8565b6001600160401b03861660408401528281036060840152612a2f8185876129a8565b9998505050505050505050565b61ffff86168152608060208201526000612a5a6080830186886129a8565b6001600160401b03949094166040830152506001600160a01b03919091166060909101529392505050565b60006001600160401b03808316818103612aa157612aa161297f565b6001019392505050565b601f821115612af557600081815260208120601f850160051c81016020861015612ad25750805b601f850160051c820191505b81811015612af157828155600101612ade565b5050505b505050565b81516001600160401b03811115612b1357612b136122b2565b612b2781612b218454612945565b84612aab565b602080601f831160018114612b5c5760008415612b445750858301515b600019600386901b1c1916600185901b178555612af1565b600085815260208120601f198616915b82811015612b8b57888601518255948401946001909101908401612b6c565b5085821015612ba95787850151600019600388901b60f8161c191681555b5050505050600190811b01905550565b81810381811115610cf757610cf761297f565b634e487b7160e01b600052603260045260246000fd5b818103612bed575050565b612bf78254612945565b6001600160401b03811115612c0e57612c0e6122b2565b612c1c81612b218454612945565b6000601f821160018114612c505760008315612c385750848201545b600019600385901b1c1916600184901b178455612cb5565b600085815260209020601f19841690600086815260209020845b83811015612c8a5782860154825560019586019590910190602001612c6a565b5085831015612ca85781850154600019600388901b60f8161c191681555b50505060018360011b0184555b5050505050565b600060018201612cce57612cce61297f565b5060010190565b61ffff8916815260c060208201526000612cf360c08301898b6129a8565b6001600160a01b03881660408401526001600160401b03871660608401528281036080840152612d248186886129a8565b905082810360a0840152612d3881856123aa565b9b9a5050505050505050505050565b61ffff8716815260c060208201526000612d6460c08301886123aa565b6001600160a01b03871660408401526001600160401b03861660608401526080830185905282810360a0840152612a2f81856123aa565b8082028115828204841417610cf757610cf761297f565b634e487b7160e01b600052601260045260246000fd5b600082612dd757612dd7612db2565b500490565b6001600160801b03818116838216028082169190828114612dff57612dff61297f565b505092915050565b60006001600160801b0380841680612e2157612e21612db2565b92169190910492915050565b61ffff86168152608060208201526000612e4b6080830186886129a8565b6001600160401b03851660408401528281036060840152612e6c81856123aa565b98975050505050505050565b634e487b7160e01b600052603160045260246000fdfea26469706673582212202aa2f4df75085637df2d450d150cf60fa430ef3f208d52f41f5f32d316b7f4ae64736f6c63430008150033",
    "linkReferences": {}
  },
  "methodIdentifiers": {
    "blockNextMsg()": "d23104f1",
    "defaultAdapterParams()": "272bd384",
    "estimateFees(uint16,address,bytes,bool,bytes)": "40a7bb10",
    "forceResumeReceive(uint16,bytes)": "42d65a8d",
    "getChainId()": "3408e470",
    "getConfig(uint16,uint16,address,uint256)": "f5ecbdbc",
    "getInboundNonce(uint16,bytes)": "fdc07c70",
    "getLengthOfQueue(uint16,bytes)": "7f6df8e6",
    "getOutboundNonce(uint16,address)": "7a145748",
    "getReceiveLibraryAddress(address)": "71ba2fd6",
    "getReceiveVersion(address)": "da1a7c9a",
    "getSendLibraryAddress(address)": "9c729da1",
    "getSendVersion(address)": "096568f6",
    "hasStoredPayload(uint16,bytes)": "0eaf6ea6",
    "inboundNonce(uint16,bytes)": "9924d33b",
    "isReceivingPayload()": "ca066b35",
    "isSendingPayload()": "e97a448a",
    "lzEndpointLookup(address)": "c81b383a",
    "mockChainId()": "db14f305",
    "msgsToDeliver(uint16,bytes,uint256)": "12a9ee6b",
    "nextMsgBlocked()": "3e0dd83e",
    "oracleFee()": "f9cd3ceb",
    "outboundNonce(uint16,address)": "b2086499",
    "protocolFeeConfig()": "07d3277f",
    "receivePayload(uint16,bytes,address,uint64,uint256,bytes)": "c2fa4813",
    "relayerFeeConfig()": "907c5e7e",
    "retryPayload(uint16,bytes,bytes)": "aaff5f16",
    "send(uint16,bytes,bytes,address,address,bytes)": "c5803100",
    "setConfig(uint16,uint16,uint256,bytes)": "cbed8b9c",
    "setDefaultAdapterParams(bytes)": "fbba623b",
    "setDestLzEndpoint(address,address)": "c08f15a1",
    "setOracleFee(uint256)": "b6d9ef60",
    "setProtocolFee(uint256,uint256)": "240de277",
    "setReceiveVersion(uint16)": "10ddb137",
    "setRelayerPrice(uint128,uint128,uint128,uint64,uint64)": "2c365e25",
    "setSendVersion(uint16)": "07e0db17",
    "storedPayload(uint16,bytes)": "76a386dc"
  },
  "id": 36
}