{
  "abi": [
    {
      "inputs": [],
      "stateMutability": "nonpayable",
      "type": "constructor"
    },
    {
      "inputs": [
        {
          "internalType": "address",
          "name": "spender",
          "type": "address"
        },
        {
          "internalType": "uint256",
          "name": "allowance",
          "type": "uint256"
        },
        {
          "internalType": "uint256",
          "name": "needed",
          "type": "uint256"
        }
      ],
      "name": "ERC20InsufficientAllowance",
      "type": "error"
    },
    {
      "inputs": [
        {
          "internalType": "address",
          "name": "sender",
          "type": "address"
        },
        {
          "internalType": "uint256",
          "name": "balance",
          "type": "uint256"
        },
        {
          "internalType": "uint256",
          "name": "needed",
          "type": "uint256"
        }
      ],
      "name": "ERC20InsufficientBalance",
      "type": "error"
    },
    {
      "inputs": [
        {
          "internalType": "address",
          "name": "approver",
          "type": "address"
        }
      ],
      "name": "ERC20InvalidApprover",
      "type": "error"
    },
    {
      "inputs": [
        {
          "internalType": "address",
          "name": "receiver",
          "type": "address"
        }
      ],
      "name": "ERC20InvalidReceiver",
      "type": "error"
    },
    {
      "inputs": [
        {
          "internalType": "address",
          "name": "sender",
          "type": "address"
        }
      ],
      "name": "ERC20InvalidSender",
      "type": "error"
    },
    {
      "inputs": [
        {
          "internalType": "address",
          "name": "spender",
          "type": "address"
        }
      ],
      "name": "ERC20InvalidSpender",
      "type": "error"
    },
    {
      "inputs": [
        {
          "internalType": "uint256",
          "name": "FeeRquired",
          "type": "uint256"
        }
      ],
      "name": "InsufficientNativeFee",
      "type": "error"
    },
    {
      "anonymous": false,
      "inputs": [
        {
          "indexed": true,
          "internalType": "address",
          "name": "owner",
          "type": "address"
        },
        {
          "indexed": true,
          "internalType": "address",
          "name": "spender",
          "type": "address"
        },
        {
          "indexed": false,
          "internalType": "uint256",
          "name": "value",
          "type": "uint256"
        }
      ],
      "name": "Approval",
      "type": "event"
    },
    {
      "anonymous": false,
      "inputs": [
        {
          "indexed": true,
          "internalType": "address",
          "name": "nativeToken",
          "type": "address"
        },
        {
          "indexed": true,
          "internalType": "address",
          "name": "Htoken",
          "type": "address"
        }
      ],
      "name": "Initialized",
      "type": "event"
    },
    {
      "anonymous": false,
      "inputs": [
        {
          "indexed": true,
          "internalType": "address",
          "name": "nativeToken",
          "type": "address"
        },
        {
          "indexed": true,
          "internalType": "uint16",
          "name": "nativeChain",
          "type": "uint16"
        },
        {
          "indexed": false,
          "internalType": "address",
          "name": "localHToken",
          "type": "address"
        }
      ],
      "name": "Received",
      "type": "event"
    },
    {
      "anonymous": false,
      "inputs": [
        {
          "indexed": true,
          "internalType": "uint16",
          "name": "srcChain",
          "type": "uint16"
        },
        {
          "indexed": false,
          "internalType": "bytes32",
          "name": "payloadHash",
          "type": "bytes32"
        }
      ],
      "name": "ReversePayload",
      "type": "event"
    },
    {
      "anonymous": false,
      "inputs": [
        {
          "indexed": true,
          "internalType": "address",
          "name": "token",
          "type": "address"
        },
        {
          "indexed": true,
          "internalType": "uint16",
          "name": "dstChain",
          "type": "uint16"
        },
        {
          "indexed": false,
          "internalType": "address",
          "name": "from",
          "type": "address"
        },
        {
          "indexed": false,
          "internalType": "address",
          "name": "to",
          "type": "address"
        },
        {
          "indexed": false,
          "internalType": "uint256",
          "name": "amount",
          "type": "uint256"
        }
      ],
      "name": "Sending",
      "type": "event"
    },
    {
      "anonymous": false,
      "inputs": [
        {
          "indexed": true,
          "internalType": "uint16",
          "name": "srcChain",
          "type": "uint16"
        },
        {
          "indexed": false,
          "internalType": "uint64",
          "name": "nonce",
          "type": "uint64"
        },
        {
          "indexed": false,
          "internalType": "bytes32",
          "name": "payloadHash",
          "type": "bytes32"
        }
      ],
      "name": "StoredPayload",
      "type": "event"
    },
    {
      "anonymous": false,
      "inputs": [
        {
          "indexed": true,
          "internalType": "address",
          "name": "from",
          "type": "address"
        },
        {
          "indexed": true,
          "internalType": "address",
          "name": "to",
          "type": "address"
        },
        {
          "indexed": false,
          "internalType": "uint256",
          "name": "value",
          "type": "uint256"
        }
      ],
      "name": "Transfer",
      "type": "event"
    },
    {
      "inputs": [],
      "name": "INITIALIZED",
      "outputs": [
        {
          "internalType": "uint8",
          "name": "",
          "type": "uint8"
        }
      ],
      "stateMutability": "view",
      "type": "function"
    },
    {
      "inputs": [
        {
          "internalType": "address",
          "name": "owner",
          "type": "address"
        },
        {
          "internalType": "address",
          "name": "spender",
          "type": "address"
        }
      ],
      "name": "allowance",
      "outputs": [
        {
          "internalType": "uint256",
          "name": "",
          "type": "uint256"
        }
      ],
      "stateMutability": "view",
      "type": "function"
    },
    {
      "inputs": [
        {
          "internalType": "address",
          "name": "spender",
          "type": "address"
        },
        {
          "internalType": "uint256",
          "name": "value",
          "type": "uint256"
        }
      ],
      "name": "approve",
      "outputs": [
        {
          "internalType": "bool",
          "name": "",
          "type": "bool"
        }
      ],
      "stateMutability": "nonpayable",
      "type": "function"
    },
    {
      "inputs": [
        {
          "internalType": "address",
          "name": "account",
          "type": "address"
        }
      ],
      "name": "balanceOf",
      "outputs": [
        {
          "internalType": "uint256",
          "name": "",
          "type": "uint256"
        }
      ],
      "stateMutability": "view",
      "type": "function"
    },
    {
      "inputs": [
        {
          "internalType": "address",
          "name": "from",
          "type": "address"
        },
        {
          "internalType": "uint256",
          "name": "amount",
          "type": "uint256"
        }
      ],
      "name": "burn",
      "outputs": [
        {
          "internalType": "uint256",
          "name": "",
          "type": "uint256"
        }
      ],
      "stateMutability": "nonpayable",
      "type": "function"
    },
    {
      "inputs": [],
      "name": "decimals",
      "outputs": [
        {
          "internalType": "uint8",
          "name": "",
          "type": "uint8"
        }
      ],
      "stateMutability": "view",
      "type": "function"
    },
    {
      "inputs": [],
      "name": "delivery",
      "outputs": [
        {
          "internalType": "address",
          "name": "",
          "type": "address"
        }
      ],
      "stateMutability": "view",
      "type": "function"
    },
    {
      "inputs": [
        {
          "internalType": "bool",
          "name": "payInZro",
          "type": "bool"
        },
        {
          "internalType": "uint16",
          "name": "chainId",
          "type": "uint16"
        },
        {
          "internalType": "address",
          "name": "to",
          "type": "address"
        },
        {
          "internalType": "uint256",
          "name": "amount",
          "type": "uint256"
        }
      ],
      "name": "estimateTransferFee",
      "outputs": [
        {
          "internalType": "uint256",
          "name": "native",
          "type": "uint256"
        },
        {
          "internalType": "uint256",
          "name": "zro",
          "type": "uint256"
        }
      ],
      "stateMutability": "view",
      "type": "function"
    },
    {
      "inputs": [
        {
          "internalType": "address",
          "name": "_delivery",
          "type": "address"
        },
        {
          "internalType": "address",
          "name": "token",
          "type": "address"
        },
        {
          "internalType": "address",
          "name": "_wrapper",
          "type": "address"
        },
        {
          "internalType": "uint16",
          "name": "chainId",
          "type": "uint16"
        },
        {
          "internalType": "string",
          "name": "name",
          "type": "string"
        },
        {
          "internalType": "string",
          "name": "symbol",
          "type": "string"
        },
        {
          "internalType": "uint8",
          "name": "dec",
          "type": "uint8"
        }
      ],
      "name": "inialize",
      "outputs": [],
      "stateMutability": "nonpayable",
      "type": "function"
    },
    {
      "inputs": [
        {
          "internalType": "address",
          "name": "to",
          "type": "address"
        },
        {
          "internalType": "uint256",
          "name": "amount",
          "type": "uint256"
        }
      ],
      "name": "mint",
      "outputs": [
        {
          "internalType": "uint256",
          "name": "",
          "type": "uint256"
        }
      ],
      "stateMutability": "nonpayable",
      "type": "function"
    },
    {
      "inputs": [],
      "name": "name",
      "outputs": [
        {
          "internalType": "string",
          "name": "",
          "type": "string"
        }
      ],
      "stateMutability": "view",
      "type": "function"
    },
    {
      "inputs": [],
      "name": "nativeChain",
      "outputs": [
        {
          "internalType": "uint16",
          "name": "",
          "type": "uint16"
        }
      ],
      "stateMutability": "view",
      "type": "function"
    },
    {
      "inputs": [],
      "name": "nativeToken",
      "outputs": [
        {
          "internalType": "address",
          "name": "",
          "type": "address"
        }
      ],
      "stateMutability": "view",
      "type": "function"
    },
    {
      "inputs": [
        {
          "internalType": "uint16",
          "name": "chainId",
          "type": "uint16"
        },
        {
          "internalType": "address",
          "name": "to",
          "type": "address"
        },
        {
          "internalType": "uint256",
          "name": "amount",
          "type": "uint256"
        },
        {
          "internalType": "bool",
          "name": "_payInZro",
          "type": "bool"
        }
      ],
      "name": "send",
      "outputs": [],
      "stateMutability": "payable",
      "type": "function"
    },
    {
      "inputs": [
        {
          "internalType": "uint16",
          "name": "chainId",
          "type": "uint16"
        },
        {
          "internalType": "address",
          "name": "from",
          "type": "address"
        },
        {
          "internalType": "address",
          "name": "to",
          "type": "address"
        },
        {
          "internalType": "uint256",
          "name": "amount",
          "type": "uint256"
        },
        {
          "internalType": "bool",
          "name": "_payInZro",
          "type": "bool"
        }
      ],
      "name": "sendFrom",
      "outputs": [],
      "stateMutability": "payable",
      "type": "function"
    },
    {
      "inputs": [],
      "name": "symbol",
      "outputs": [
        {
          "internalType": "string",
          "name": "",
          "type": "string"
        }
      ],
      "stateMutability": "view",
      "type": "function"
    },
    {
      "inputs": [],
      "name": "totalSupply",
      "outputs": [
        {
          "internalType": "uint256",
          "name": "",
          "type": "uint256"
        }
      ],
      "stateMutability": "view",
      "type": "function"
    },
    {
      "inputs": [
        {
          "internalType": "address",
          "name": "to",
          "type": "address"
        },
        {
          "internalType": "uint256",
          "name": "value",
          "type": "uint256"
        }
      ],
      "name": "transfer",
      "outputs": [
        {
          "internalType": "bool",
          "name": "",
          "type": "bool"
        }
      ],
      "stateMutability": "nonpayable",
      "type": "function"
    },
    {
      "inputs": [
        {
          "internalType": "address",
          "name": "from",
          "type": "address"
        },
        {
          "internalType": "address",
          "name": "to",
          "type": "address"
        },
        {
          "internalType": "uint256",
          "name": "value",
          "type": "uint256"
        }
      ],
      "name": "transferFrom",
      "outputs": [
        {
          "internalType": "bool",
          "name": "",
          "type": "bool"
        }
      ],
      "stateMutability": "nonpayable",
      "type": "function"
    },
    {
      "inputs": [],
      "name": "wrapper",
      "outputs": [
        {
          "internalType": "address",
          "name": "",
          "type": "address"
        }
      ],
      "stateMutability": "view",
      "type": "function"
    }
  ],
  "bytecode": {
    "object": "0x60a060405234801561001057600080fd5b503060805260805161168d61003060003960006107c7015261168d6000f3fe60806040526004361061011f5760003560e01c806395288883116100a0578063af0e1d6211610064578063af0e1d621461034a578063c7189e691461035d578063dd62ed3e14610392578063e1758bd8146103d8578063e2da50af146103f657600080fd5b806395288883146102b657806395d89b41146102d75780639dc29fac146102ec578063a9059cbb1461030c578063ac210cc71461032c57600080fd5b8063313ce567116100e7578063313ce567146101ec5780633d5a70c21461021957806340c10f191461024b5780635dbf6e5a1461026b57806370a082311461028057600080fd5b806306fdde0314610124578063095ea7b31461014f57806318160ddd1461017f57806323b872dd1461019e5780632c59f9c0146101be575b600080fd5b34801561013057600080fd5b50610139610416565b6040516101469190611058565b60405180910390f35b34801561015b57600080fd5b5061016f61016a36600461108e565b6104a8565b6040519015158152602001610146565b34801561018b57600080fd5b506002545b604051908152602001610146565b3480156101aa57600080fd5b5061016f6101b93660046110b8565b6104c2565b3480156101ca57600080fd5b50600554600160d01b900461ffff1660405161ffff9091168152602001610146565b3480156101f857600080fd5b50600554600160a81b900460ff165b60405160ff9091168152602001610146565b34801561022557600080fd5b506007546001600160a01b03165b6040516001600160a01b039091168152602001610146565b34801561025757600080fd5b5061019061026636600461108e565b6104e6565b61027e610279366004611116565b61056c565b005b34801561028c57600080fd5b5061019061029b366004611163565b6001600160a01b031660009081526020819052604090205490565b3480156102c257600080fd5b5060055461020790600160a01b900460ff1681565b3480156102e357600080fd5b506101396105da565b3480156102f857600080fd5b5061019061030736600461108e565b6105e9565b34801561031857600080fd5b5061016f61032736600461108e565b610616565b34801561033857600080fd5b506005546001600160a01b0316610233565b61027e61035836600461117e565b610624565b34801561036957600080fd5b5061037d6103783660046111dc565b610695565b60408051928352602083019190915201610146565b34801561039e57600080fd5b506101906103ad366004611227565b6001600160a01b03918216600090815260016020908152604080832093909416825291909152205490565b3480156103e457600080fd5b506006546001600160a01b0316610233565b34801561040257600080fd5b5061027e6104113660046112fd565b61076d565b606060038054610425906113be565b80601f0160208091040260200160405190810160405280929190818152602001828054610451906113be565b801561049e5780601f106104735761010080835404028352916020019161049e565b820191906000526020600020905b81548152906001019060200180831161048157829003601f168201915b5050505050905090565b6000336104b681858561090f565b60019150505b92915050565b6000336104d0858285610921565b6104db85858561099f565b506001949350505050565b60055460009033906001600160a01b0316811480159061051457506007546001600160a01b03828116911614155b1561055a5760405162461bcd60e51b81526020600482015260116024820152701bdb9b1e481ddc985c1c195c8818d85b1b607a1b60448201526064015b60405180910390fd5b61056484846109fe565b509092915050565b6105763383610a38565b61058284848484610a6e565b604080513381526001600160a01b038516602082015290810183905261ffff85169030907f02f52b6dd01a4655b91f32f4dba7d92413ecdc5d325936c32a442e1a95129fca906060015b60405180910390a350505050565b606060048054610425906113be565b6000336001600160a01b0384161461060657610606833384610921565b6106108383610a38565b50919050565b6000336104b681858561099f565b61062e84836105e9565b5061063b85848484610a6e565b604080516001600160a01b0386811682528516602082015290810183905261ffff86169030907f02f52b6dd01a4655b91f32f4dba7d92413ecdc5d325936c32a442e1a95129fca9060600160405180910390a35050505050565b604080516001600160a01b038416602482015260448082018490528251808303909101815260649091019091526020810180516001600160e01b03166340c10f1960e01b17905260009081906106ea81610be9565b600754604051631122258f60e01b81529192506001600160a01b031690631122258f9061071f90899085908c906004016113f2565b6040805180830381865afa15801561073b573d6000803e3d6000fd5b505050506040513d601f19601f8201168201806040525081019061075f9190611421565b909890975095505050505050565b600554600160a01b900460ff16156107bd5760405162461bcd60e51b8152602060048201526013602482015272185b1c9958591e481a5b9a5d1a585b1a5e9959606a1b6044820152606401610551565b6001600160a01b037f00000000000000000000000000000000000000000000000000000000000000001630036108355760405162461bcd60e51b815260206004820152601f60248201527f63616e277420696e697469616c697a6520696d706c656d656e746174696f6e006044820152606401610551565b60036108418482611493565b50600461084e8382611493565b5060058054600680546001600160a01b03199081166001600160a01b038b8116918217909355898316600167ffff00000000ff0160a01b0319909416600160a81b60ff881602600167ffff00000000000160a01b0319161793909317600160d01b61ffff8a16021790935560078054909316908a16179091556040513091907f3cd5ec01b1ae7cfec6ca1863e2cd6aa25d6d1702825803ff2b7cc95010fffdc290600090a350506005805460ff60a01b1916600160a01b1790555050505050565b61091c8383836001610e17565b505050565b6001600160a01b038381166000908152600160209081526040808320938616835292905220546000198114610999578181101561098a57604051637dc7a0d960e11b81526001600160a01b03841660048201526024810182905260448101839052606401610551565b61099984848484036000610e17565b50505050565b6001600160a01b0383166109c957604051634b637e8f60e11b815260006004820152602401610551565b6001600160a01b0382166109f35760405163ec442f0560e01b815260006004820152602401610551565b61091c838383610ede565b6001600160a01b038216610a285760405163ec442f0560e01b815260006004820152602401610551565b610a3460008383610ede565b5050565b6001600160a01b038216610a6257604051634b637e8f60e11b815260006004820152602401610551565b610a3482600083610ede565b604080516001600160a01b038516602482015260448082018590528251808303909101815260649091019091526020810180516001600160e01b03166340c10f1960e01b1790526000610ac082610be9565b600754604051631122258f60e01b815291925060009182916001600160a01b031690631122258f90610afa908b9087908a906004016113f2565b6040805180830381865afa158015610b16573d6000803e3d6000fd5b505050506040513d601f19601f82011682018060405250810190610b3a9190611421565b91509150600081600003610b4f576000610b51565b335b905082341015610b7757604051631626ba2960e01b815260048101849052602401610551565b6007546001600160a01b03166376791918348b8733866040518663ffffffff1660e01b8152600401610bac9493929190611553565b6000604051808303818588803b158015610bc557600080fd5b505af1158015610bd9573d6000803e3d6000fd5b5050505050505050505050505050565b600554600654604051600160d01b90920460f01b6001600160f01b0319166020830152606090811b6bffffffffffffffffffffffff19166022830152906000906036016040516020818303038152906040529050600060048054610c4c906113be565b80601f0160208091040260200160405190810160405280929190818152602001828054610c78906113be565b8015610cc55780601f10610c9a57610100808354040283529160200191610cc5565b820191906000526020600020905b815481529060010190602001808311610ca857829003601f168201915b50505050509050600060038054610cdb906113be565b80601f0160208091040260200160405190810160405280929190818152602001828054610d07906113be565b8015610d545780601f10610d2957610100808354040283529160200191610d54565b820191906000526020600020905b815481529060010190602001808311610d3757829003601f168201915b505050505090508451604051602001610d6f91815260200190565b60408051601f198184030181528282528351602084015291879186910160408051601f19818403018152828252875160208401529186910160408051808303601f1901815290829052600554600160a81b900460f81b6001600160f81b031916602083015290889060210160408051601f1981840301815290829052610dfe9897969594939291602001611591565b6040516020818303038152906040529350505050919050565b6001600160a01b038416610e415760405163e602df0560e01b815260006004820152602401610551565b6001600160a01b038316610e6b57604051634a1406b160e11b815260006004820152602401610551565b6001600160a01b038085166000908152600160209081526040808320938716835292905220829055801561099957826001600160a01b0316846001600160a01b03167f8c5be1e5ebec7d5bd14f71427d1e84f3dd0314c0f7b2291e5b200ac8c7c3b925846040516105cc91815260200190565b6001600160a01b038316610f09578060026000828254610efe9190611636565b90915550610f7b9050565b6001600160a01b03831660009081526020819052604090205481811015610f5c5760405163391434e360e21b81526001600160a01b03851660048201526024810182905260448101839052606401610551565b6001600160a01b03841660009081526020819052604090209082900390555b6001600160a01b038216610f9757600280548290039055610fb6565b6001600160a01b03821660009081526020819052604090208054820190555b816001600160a01b0316836001600160a01b03167fddf252ad1be2c89b69c2b068fc378daa952ba7f163c4a11628f55a4df523b3ef83604051610ffb91815260200190565b60405180910390a3505050565b60005b8381101561102357818101518382015260200161100b565b50506000910152565b60008151808452611044816020860160208601611008565b601f01601f19169290920160200192915050565b60208152600061106b602083018461102c565b9392505050565b80356001600160a01b038116811461108957600080fd5b919050565b600080604083850312156110a157600080fd5b6110aa83611072565b946020939093013593505050565b6000806000606084860312156110cd57600080fd5b6110d684611072565b92506110e460208501611072565b9150604084013590509250925092565b803561ffff8116811461108957600080fd5b8035801515811461108957600080fd5b6000806000806080858703121561112c57600080fd5b611135856110f4565b935061114360208601611072565b92506040850135915061115860608601611106565b905092959194509250565b60006020828403121561117557600080fd5b61106b82611072565b600080600080600060a0868803121561119657600080fd5b61119f866110f4565b94506111ad60208701611072565b93506111bb60408701611072565b9250606086013591506111d060808701611106565b90509295509295909350565b600080600080608085870312156111f257600080fd5b6111fb85611106565b9350611209602086016110f4565b925061121760408601611072565b9396929550929360600135925050565b6000806040838503121561123a57600080fd5b61124383611072565b915061125160208401611072565b90509250929050565b634e487b7160e01b600052604160045260246000fd5b600082601f83011261128157600080fd5b813567ffffffffffffffff8082111561129c5761129c61125a565b604051601f8301601f19908116603f011681019082821181831017156112c4576112c461125a565b816040528381528660208588010111156112dd57600080fd5b836020870160208301376000602085830101528094505050505092915050565b600080600080600080600060e0888a03121561131857600080fd5b61132188611072565b965061132f60208901611072565b955061133d60408901611072565b945061134b606089016110f4565b9350608088013567ffffffffffffffff8082111561136857600080fd5b6113748b838c01611270565b945060a08a013591508082111561138a57600080fd5b506113978a828b01611270565b92505060c088013560ff811681146113ae57600080fd5b8091505092959891949750929550565b600181811c908216806113d257607f821691505b60208210810361061057634e487b7160e01b600052602260045260246000fd5b61ffff8416815260606020820152600061140f606083018561102c565b90508215156040830152949350505050565b6000806040838503121561143457600080fd5b505080516020909101519092909150565b601f82111561091c57600081815260208120601f850160051c8101602086101561146c5750805b601f850160051c820191505b8181101561148b57828155600101611478565b505050505050565b815167ffffffffffffffff8111156114ad576114ad61125a565b6114c1816114bb84546113be565b84611445565b602080601f8311600181146114f657600084156114de5750858301515b600019600386901b1c1916600185901b17855561148b565b600085815260208120601f198616915b8281101561152557888601518255948401946001909101908401611506565b50858210156115435787850151600019600388901b60f8161c191681555b5050505050600190811b01905550565b61ffff85168152608060208201526000611570608083018661102c565b6001600160a01b039485166040840152929093166060909101529392505050565b6000895160206115a48285838f01611008565b8a51918401916115b78184848f01611008565b8a519201916115c98184848e01611008565b89519201916115db8184848d01611008565b88519201916115ed8184848c01611008565b87519201916115ff8184848b01611008565b86519201916116118184848a01611008565b85519201916116238184848901611008565b919091019b9a5050505050505050505050565b808201808211156104bc57634e487b7160e01b600052601160045260246000fdfea2646970667358221220f342acb060e6c92603ccd42a1a49e6e116e1d45b54bf8ce709c909f66501730664736f6c63430008150033",
    "linkReferences": {}
  },
  "methodIdentifiers": {
    "INITIALIZED()": "95288883",
    "allowance(address,address)": "dd62ed3e",
    "approve(address,uint256)": "095ea7b3",
    "balanceOf(address)": "70a08231",
    "burn(address,uint256)": "9dc29fac",
    "decimals()": "313ce567",
    "delivery()": "3d5a70c2",
    "estimateTransferFee(bool,uint16,address,uint256)": "c7189e69",
    "inialize(address,address,address,uint16,string,string,uint8)": "e2da50af",
    "mint(address,uint256)": "40c10f19",
    "name()": "06fdde03",
    "nativeChain()": "2c59f9c0",
    "nativeToken()": "e1758bd8",
    "send(uint16,address,uint256,bool)": "5dbf6e5a",
    "sendFrom(uint16,address,address,uint256,bool)": "af0e1d62",
    "symbol()": "95d89b41",
    "totalSupply()": "18160ddd",
    "transfer(address,uint256)": "a9059cbb",
    "transferFrom(address,address,uint256)": "23b872dd",
    "wrapper()": "ac210cc7"
  },
  "id": 23
}