{
  "abi": [
    {
      "inputs": [
        {
          "internalType": "address",
          "name": "spender",
          "type": "address"
        },
        {
          "internalType": "uint256",
          "name": "allowance",
          "type": "uint256"
        },
        {
          "internalType": "uint256",
          "name": "needed",
          "type": "uint256"
        }
      ],
      "name": "ERC20InsufficientAllowance",
      "type": "error"
    },
    {
      "inputs": [
        {
          "internalType": "address",
          "name": "sender",
          "type": "address"
        },
        {
          "internalType": "uint256",
          "name": "balance",
          "type": "uint256"
        },
        {
          "internalType": "uint256",
          "name": "needed",
          "type": "uint256"
        }
      ],
      "name": "ERC20InsufficientBalance",
      "type": "error"
    },
    {
      "inputs": [
        {
          "internalType": "address",
          "name": "approver",
          "type": "address"
        }
      ],
      "name": "ERC20InvalidApprover",
      "type": "error"
    },
    {
      "inputs": [
        {
          "internalType": "address",
          "name": "receiver",
          "type": "address"
        }
      ],
      "name": "ERC20InvalidReceiver",
      "type": "error"
    },
    {
      "inputs": [
        {
          "internalType": "address",
          "name": "sender",
          "type": "address"
        }
      ],
      "name": "ERC20InvalidSender",
      "type": "error"
    },
    {
      "inputs": [
        {
          "internalType": "address",
          "name": "spender",
          "type": "address"
        }
      ],
      "name": "ERC20InvalidSpender",
      "type": "error"
    },
    {
      "inputs": [
        {
          "internalType": "uint256",
          "name": "FeeRquired",
          "type": "uint256"
        }
      ],
      "name": "InsufficientNativeFee",
      "type": "error"
    },
    {
      "anonymous": false,
      "inputs": [
        {
          "indexed": true,
          "internalType": "address",
          "name": "owner",
          "type": "address"
        },
        {
          "indexed": true,
          "internalType": "address",
          "name": "spender",
          "type": "address"
        },
        {
          "indexed": false,
          "internalType": "uint256",
          "name": "value",
          "type": "uint256"
        }
      ],
      "name": "Approval",
      "type": "event"
    },
    {
      "anonymous": false,
      "inputs": [
        {
          "indexed": true,
          "internalType": "address",
          "name": "from",
          "type": "address"
        },
        {
          "indexed": true,
          "internalType": "address",
          "name": "to",
          "type": "address"
        },
        {
          "indexed": false,
          "internalType": "uint256",
          "name": "value",
          "type": "uint256"
        }
      ],
      "name": "Transfer",
      "type": "event"
    },
    {
      "inputs": [],
      "name": "INITIALIZED",
      "outputs": [
        {
          "internalType": "uint8",
          "name": "",
          "type": "uint8"
        }
      ],
      "stateMutability": "view",
      "type": "function"
    },
    {
      "inputs": [
        {
          "internalType": "address",
          "name": "owner",
          "type": "address"
        },
        {
          "internalType": "address",
          "name": "spender",
          "type": "address"
        }
      ],
      "name": "allowance",
      "outputs": [
        {
          "internalType": "uint256",
          "name": "",
          "type": "uint256"
        }
      ],
      "stateMutability": "view",
      "type": "function"
    },
    {
      "inputs": [
        {
          "internalType": "address",
          "name": "spender",
          "type": "address"
        },
        {
          "internalType": "uint256",
          "name": "value",
          "type": "uint256"
        }
      ],
      "name": "approve",
      "outputs": [
        {
          "internalType": "bool",
          "name": "",
          "type": "bool"
        }
      ],
      "stateMutability": "nonpayable",
      "type": "function"
    },
    {
      "inputs": [
        {
          "internalType": "address",
          "name": "account",
          "type": "address"
        }
      ],
      "name": "balanceOf",
      "outputs": [
        {
          "internalType": "uint256",
          "name": "",
          "type": "uint256"
        }
      ],
      "stateMutability": "view",
      "type": "function"
    },
    {
      "inputs": [
        {
          "internalType": "address",
          "name": "from",
          "type": "address"
        },
        {
          "internalType": "uint256",
          "name": "amount",
          "type": "uint256"
        }
      ],
      "name": "burn",
      "outputs": [
        {
          "internalType": "uint256",
          "name": "",
          "type": "uint256"
        }
      ],
      "stateMutability": "nonpayable",
      "type": "function"
    },
    {
      "inputs": [],
      "name": "decimals",
      "outputs": [
        {
          "internalType": "uint8",
          "name": "",
          "type": "uint8"
        }
      ],
      "stateMutability": "view",
      "type": "function"
    },
    {
      "inputs": [
        {
          "internalType": "bool",
          "name": "payInZro",
          "type": "bool"
        },
        {
          "internalType": "uint16",
          "name": "chainId",
          "type": "uint16"
        },
        {
          "internalType": "address",
          "name": "to",
          "type": "address"
        },
        {
          "internalType": "uint256",
          "name": "amount",
          "type": "uint256"
        }
      ],
      "name": "estimateTransferFee",
      "outputs": [
        {
          "internalType": "uint256",
          "name": "native",
          "type": "uint256"
        },
        {
          "internalType": "uint256",
          "name": "zro",
          "type": "uint256"
        }
      ],
      "stateMutability": "view",
      "type": "function"
    },
    {
      "inputs": [
        {
          "internalType": "address",
          "name": "_delivery",
          "type": "address"
        },
        {
          "internalType": "address",
          "name": "token",
          "type": "address"
        },
        {
          "internalType": "address",
          "name": "warpper",
          "type": "address"
        },
        {
          "internalType": "uint16",
          "name": "chainId",
          "type": "uint16"
        },
        {
          "internalType": "string",
          "name": "name",
          "type": "string"
        },
        {
          "internalType": "string",
          "name": "symbol",
          "type": "string"
        },
        {
          "internalType": "uint8",
          "name": "dec",
          "type": "uint8"
        }
      ],
      "name": "inialize",
      "outputs": [],
      "stateMutability": "nonpayable",
      "type": "function"
    },
    {
      "inputs": [
        {
          "internalType": "address",
          "name": "to",
          "type": "address"
        },
        {
          "internalType": "uint256",
          "name": "amount",
          "type": "uint256"
        }
      ],
      "name": "mint",
      "outputs": [
        {
          "internalType": "uint256",
          "name": "",
          "type": "uint256"
        }
      ],
      "stateMutability": "nonpayable",
      "type": "function"
    },
    {
      "inputs": [],
      "name": "name",
      "outputs": [
        {
          "internalType": "string",
          "name": "",
          "type": "string"
        }
      ],
      "stateMutability": "view",
      "type": "function"
    },
    {
      "inputs": [
        {
          "internalType": "uint16",
          "name": "chainId",
          "type": "uint16"
        },
        {
          "internalType": "address",
          "name": "to",
          "type": "address"
        },
        {
          "internalType": "uint256",
          "name": "amount",
          "type": "uint256"
        },
        {
          "internalType": "bool",
          "name": "_payInZro",
          "type": "bool"
        }
      ],
      "name": "send",
      "outputs": [],
      "stateMutability": "payable",
      "type": "function"
    },
    {
      "inputs": [
        {
          "internalType": "uint16",
          "name": "chainId",
          "type": "uint16"
        },
        {
          "internalType": "address",
          "name": "from",
          "type": "address"
        },
        {
          "internalType": "address",
          "name": "to",
          "type": "address"
        },
        {
          "internalType": "uint256",
          "name": "amount",
          "type": "uint256"
        },
        {
          "internalType": "bool",
          "name": "_payInZro",
          "type": "bool"
        }
      ],
      "name": "sendFrom",
      "outputs": [],
      "stateMutability": "payable",
      "type": "function"
    },
    {
      "inputs": [],
      "name": "symbol",
      "outputs": [
        {
          "internalType": "string",
          "name": "",
          "type": "string"
        }
      ],
      "stateMutability": "view",
      "type": "function"
    },
    {
      "inputs": [],
      "name": "totalSupply",
      "outputs": [
        {
          "internalType": "uint256",
          "name": "",
          "type": "uint256"
        }
      ],
      "stateMutability": "view",
      "type": "function"
    },
    {
      "inputs": [
        {
          "internalType": "address",
          "name": "to",
          "type": "address"
        },
        {
          "internalType": "uint256",
          "name": "value",
          "type": "uint256"
        }
      ],
      "name": "transfer",
      "outputs": [
        {
          "internalType": "bool",
          "name": "",
          "type": "bool"
        }
      ],
      "stateMutability": "nonpayable",
      "type": "function"
    },
    {
      "inputs": [
        {
          "internalType": "address",
          "name": "from",
          "type": "address"
        },
        {
          "internalType": "address",
          "name": "to",
          "type": "address"
        },
        {
          "internalType": "uint256",
          "name": "value",
          "type": "uint256"
        }
      ],
      "name": "transferFrom",
      "outputs": [
        {
          "internalType": "bool",
          "name": "",
          "type": "bool"
        }
      ],
      "stateMutability": "nonpayable",
      "type": "function"
    }
  ],
  "bytecode": {
    "object": "0x608060405234801561001057600080fd5b50611469806100206000396000f3fe6080604052600436106100f35760003560e01c8063952888831161008a578063af0e1d6211610059578063af0e1d62146102a0578063c7189e69146102b3578063dd62ed3e146102e8578063e2da50af1461032e57600080fd5b8063952888831461022a57806395d89b411461024b5780639dc29fac14610260578063a9059cbb1461028057600080fd5b8063313ce567116100c6578063313ce5671461019257806340c10f19146101bf5780635dbf6e5a146101df57806370a08231146101f457600080fd5b806306fdde03146100f8578063095ea7b31461012357806318160ddd1461015357806323b872dd14610172575b600080fd5b34801561010457600080fd5b5061010d61034e565b60405161011a9190610e34565b60405180910390f35b34801561012f57600080fd5b5061014361013e366004610e6a565b6103e0565b604051901515815260200161011a565b34801561015f57600080fd5b506002545b60405190815260200161011a565b34801561017e57600080fd5b5061014361018d366004610e94565b6103fa565b34801561019e57600080fd5b50600554600160a81b900460ff165b60405160ff909116815260200161011a565b3480156101cb57600080fd5b506101646101da366004610e6a565b61041e565b6101f26101ed366004610ef2565b6104a4565b005b34801561020057600080fd5b5061016461020f366004610f3f565b6001600160a01b031660009081526020819052604090205490565b34801561023657600080fd5b506005546101ad90600160a01b900460ff1681565b34801561025757600080fd5b5061010d6104c0565b34801561026c57600080fd5b5061016461027b366004610e6a565b6104cf565b34801561028c57600080fd5b5061014361029b366004610e6a565b6104fc565b6101f26102ae366004610f5a565b61050a565b3480156102bf57600080fd5b506102d36102ce366004610fb8565b610528565b6040805192835260208301919091520161011a565b3480156102f457600080fd5b50610164610303366004611003565b6001600160a01b03918216600090815260016020908152604080832093909416825291909152205490565b34801561033a57600080fd5b506101f26103493660046110d9565b610600565b60606003805461035d9061119a565b80601f01602080910402602001604051908101604052809291908181526020018280546103899061119a565b80156103d65780601f106103ab576101008083540402835291602001916103d6565b820191906000526020600020905b8154815290600101906020018083116103b957829003601f168201915b5050505050905090565b6000336103ee818585610701565b60019150505b92915050565b600033610408858285610713565b61041385858561078b565b506001949350505050565b60055460009033906001600160a01b0316811480159061044c57506007546001600160a01b03828116911614155b156104925760405162461bcd60e51b81526020600482015260116024820152701bdb9b1e481dd85c9c1c195c8818d85b1b607a1b60448201526064015b60405180910390fd5b61049c84846107ea565b509092915050565b6104ae3383610824565b6104ba8484848461085a565b50505050565b60606004805461035d9061119a565b6000336001600160a01b038416146104ec576104ec833384610713565b6104f68383610824565b50919050565b6000336103ee81858561078b565b61051484836104cf565b506105218584848461085a565b5050505050565b604080516001600160a01b038416602482015260448082018490528251808303909101815260649091019091526020810180516001600160e01b03166340c10f1960e01b179052600090819061057d816109d5565b600754604051631122258f60e01b81529192506001600160a01b031690631122258f906105b290899085908c906004016111ce565b6040805180830381865afa1580156105ce573d6000803e3d6000fd5b505050506040513d601f19601f820116820180604052508101906105f291906111fd565b909890975095505050505050565b600554600160a01b900460ff16156106505760405162461bcd60e51b8152602060048201526013602482015272185b1c9958591e481a5b9a5d1a585b1a5e9959606a1b6044820152606401610489565b600361065c848261126f565b506004610669838261126f565b5060058054600680546001600160a01b03998a166001600160a01b031991821617909155600780549a8a169a9091169990991790985560ff60a01b1961ffff909516600160d01b02600167ffff00000000000160a01b031960ff909316600160a81b0292909216600167ffff00000000ff0160a01b03199098169790971795909416949094179290921716600160a01b179092555050565b61070e8383836001610be5565b505050565b6001600160a01b0383811660009081526001602090815260408083209386168352929052205460001981146104ba578181101561077c57604051637dc7a0d960e11b81526001600160a01b03841660048201526024810182905260448101839052606401610489565b6104ba84848484036000610be5565b6001600160a01b0383166107b557604051634b637e8f60e11b815260006004820152602401610489565b6001600160a01b0382166107df5760405163ec442f0560e01b815260006004820152602401610489565b61070e838383610cba565b6001600160a01b0382166108145760405163ec442f0560e01b815260006004820152602401610489565b61082060008383610cba565b5050565b6001600160a01b03821661084e57604051634b637e8f60e11b815260006004820152602401610489565b61082082600083610cba565b604080516001600160a01b038516602482015260448082018590528251808303909101815260649091019091526020810180516001600160e01b03166340c10f1960e01b17905260006108ac826109d5565b600754604051631122258f60e01b815291925060009182916001600160a01b031690631122258f906108e6908b9087908a906004016111ce565b6040805180830381865afa158015610902573d6000803e3d6000fd5b505050506040513d601f19601f8201168201806040525081019061092691906111fd565b9150915060008160000361093b57600061093d565b335b90508234101561096357604051631626ba2960e01b815260048101849052602401610489565b6007546001600160a01b03166376791918348b8733866040518663ffffffff1660e01b8152600401610998949392919061132f565b6000604051808303818588803b1580156109b157600080fd5b505af11580156109c5573d6000803e3d6000fd5b5050505050505050505050505050565b60055460065460408051600160d01b90930461ffff1660208401526001600160a01b039091169082015260609060009082016040516020818303038152906040529050600060048054610a279061119a565b80601f0160208091040260200160405190810160405280929190818152602001828054610a539061119a565b8015610aa05780601f10610a7557610100808354040283529160200191610aa0565b820191906000526020600020905b815481529060010190602001808311610a8357829003601f168201915b50505050509050600060038054610ab69061119a565b80601f0160208091040260200160405190810160405280929190818152602001828054610ae29061119a565b8015610b2f5780601f10610b0457610100808354040283529160200191610b2f565b820191906000526020600020905b815481529060010190602001808311610b1257829003601f168201915b505050505090508451604051602001610b4a91815260200190565b60408051601f198184030181528282528351602084015291879186910160408051601f19818403018152828252875160208401529186910160408051808303601f19018152828252600554600160a81b900460ff1660208401529189910160408051601f1981840301815290829052610bcc989796959493929160200161136d565b6040516020818303038152906040529350505050919050565b6001600160a01b038416610c0f5760405163e602df0560e01b815260006004820152602401610489565b6001600160a01b038316610c3957604051634a1406b160e11b815260006004820152602401610489565b6001600160a01b03808516600090815260016020908152604080832093871683529290522082905580156104ba57826001600160a01b0316846001600160a01b03167f8c5be1e5ebec7d5bd14f71427d1e84f3dd0314c0f7b2291e5b200ac8c7c3b92584604051610cac91815260200190565b60405180910390a350505050565b6001600160a01b038316610ce5578060026000828254610cda9190611412565b90915550610d579050565b6001600160a01b03831660009081526020819052604090205481811015610d385760405163391434e360e21b81526001600160a01b03851660048201526024810182905260448101839052606401610489565b6001600160a01b03841660009081526020819052604090209082900390555b6001600160a01b038216610d7357600280548290039055610d92565b6001600160a01b03821660009081526020819052604090208054820190555b816001600160a01b0316836001600160a01b03167fddf252ad1be2c89b69c2b068fc378daa952ba7f163c4a11628f55a4df523b3ef83604051610dd791815260200190565b60405180910390a3505050565b60005b83811015610dff578181015183820152602001610de7565b50506000910152565b60008151808452610e20816020860160208601610de4565b601f01601f19169290920160200192915050565b602081526000610e476020830184610e08565b9392505050565b80356001600160a01b0381168114610e6557600080fd5b919050565b60008060408385031215610e7d57600080fd5b610e8683610e4e565b946020939093013593505050565b600080600060608486031215610ea957600080fd5b610eb284610e4e565b9250610ec060208501610e4e565b9150604084013590509250925092565b803561ffff81168114610e6557600080fd5b80358015158114610e6557600080fd5b60008060008060808587031215610f0857600080fd5b610f1185610ed0565b9350610f1f60208601610e4e565b925060408501359150610f3460608601610ee2565b905092959194509250565b600060208284031215610f5157600080fd5b610e4782610e4e565b600080600080600060a08688031215610f7257600080fd5b610f7b86610ed0565b9450610f8960208701610e4e565b9350610f9760408701610e4e565b925060608601359150610fac60808701610ee2565b90509295509295909350565b60008060008060808587031215610fce57600080fd5b610fd785610ee2565b9350610fe560208601610ed0565b9250610ff360408601610e4e565b9396929550929360600135925050565b6000806040838503121561101657600080fd5b61101f83610e4e565b915061102d60208401610e4e565b90509250929050565b634e487b7160e01b600052604160045260246000fd5b600082601f83011261105d57600080fd5b813567ffffffffffffffff8082111561107857611078611036565b604051601f8301601f19908116603f011681019082821181831017156110a0576110a0611036565b816040528381528660208588010111156110b957600080fd5b836020870160208301376000602085830101528094505050505092915050565b600080600080600080600060e0888a0312156110f457600080fd5b6110fd88610e4e565b965061110b60208901610e4e565b955061111960408901610e4e565b945061112760608901610ed0565b9350608088013567ffffffffffffffff8082111561114457600080fd5b6111508b838c0161104c565b945060a08a013591508082111561116657600080fd5b506111738a828b0161104c565b92505060c088013560ff8116811461118a57600080fd5b8091505092959891949750929550565b600181811c908216806111ae57607f821691505b6020821081036104f657634e487b7160e01b600052602260045260246000fd5b61ffff841681526060602082015260006111eb6060830185610e08565b90508215156040830152949350505050565b6000806040838503121561121057600080fd5b505080516020909101519092909150565b601f82111561070e57600081815260208120601f850160051c810160208610156112485750805b601f850160051c820191505b8181101561126757828155600101611254565b505050505050565b815167ffffffffffffffff81111561128957611289611036565b61129d81611297845461119a565b84611221565b602080601f8311600181146112d257600084156112ba5750858301515b600019600386901b1c1916600185901b178555611267565b600085815260208120601f198616915b82811015611301578886015182559484019460019091019084016112e2565b508582101561131f5787850151600019600388901b60f8161c191681555b5050505050600190811b01905550565b61ffff8516815260806020820152600061134c6080830186610e08565b6001600160a01b039485166040840152929093166060909101529392505050565b6000895160206113808285838f01610de4565b8a51918401916113938184848f01610de4565b8a519201916113a58184848e01610de4565b89519201916113b78184848d01610de4565b88519201916113c98184848c01610de4565b87519201916113db8184848b01610de4565b86519201916113ed8184848a01610de4565b85519201916113ff8184848901610de4565b919091019b9a5050505050505050505050565b808201808211156103f457634e487b7160e01b600052601160045260246000fdfea264697066735822122065f7f17f0b970fe9d094e6850a5103a27bfb15898fead17067ab984c64e8cd0a64736f6c63430008150033",
    "linkReferences": {}
  },
  "methodIdentifiers": {
    "INITIALIZED()": "95288883",
    "allowance(address,address)": "dd62ed3e",
    "approve(address,uint256)": "095ea7b3",
    "balanceOf(address)": "70a08231",
    "burn(address,uint256)": "9dc29fac",
    "decimals()": "313ce567",
    "estimateTransferFee(bool,uint16,address,uint256)": "c7189e69",
    "inialize(address,address,address,uint16,string,string,uint8)": "e2da50af",
    "mint(address,uint256)": "40c10f19",
    "name()": "06fdde03",
    "send(uint16,address,uint256,bool)": "5dbf6e5a",
    "sendFrom(uint16,address,address,uint256,bool)": "af0e1d62",
    "symbol()": "95d89b41",
    "totalSupply()": "18160ddd",
    "transfer(address,uint256)": "a9059cbb",
    "transferFrom(address,address,uint256)": "23b872dd"
  },
  "id": 19
}